{
	"contracts/TokenVesting.sol": {
		"TokenVesting": {
			"abi": [
				{
					"constant": true,
					"inputs": [],
					"name": "duration",
					"outputs": [
						{
							"name": "",
							"type": "uint256"
						}
					],
					"payable": false,
					"stateMutability": "view",
					"type": "function"
				},
				{
					"constant": true,
					"inputs": [],
					"name": "cliff",
					"outputs": [
						{
							"name": "",
							"type": "uint256"
						}
					],
					"payable": false,
					"stateMutability": "view",
					"type": "function"
				},
				{
					"constant": false,
					"inputs": [
						{
							"name": "token",
							"type": "address"
						}
					],
					"name": "release",
					"outputs": [],
					"payable": false,
					"stateMutability": "nonpayable",
					"type": "function"
				},
				{
					"constant": true,
					"inputs": [],
					"name": "beneficiary",
					"outputs": [
						{
							"name": "",
							"type": "address"
						}
					],
					"payable": false,
					"stateMutability": "view",
					"type": "function"
				},
				{
					"constant": false,
					"inputs": [],
					"name": "renounceOwnership",
					"outputs": [],
					"payable": false,
					"stateMutability": "nonpayable",
					"type": "function"
				},
				{
					"constant": false,
					"inputs": [
						{
							"name": "token",
							"type": "address"
						}
					],
					"name": "revoke",
					"outputs": [],
					"payable": false,
					"stateMutability": "nonpayable",
					"type": "function"
				},
				{
					"constant": true,
					"inputs": [],
					"name": "revocable",
					"outputs": [
						{
							"name": "",
							"type": "bool"
						}
					],
					"payable": false,
					"stateMutability": "view",
					"type": "function"
				},
				{
					"constant": true,
					"inputs": [],
					"name": "owner",
					"outputs": [
						{
							"name": "",
							"type": "address"
						}
					],
					"payable": false,
					"stateMutability": "view",
					"type": "function"
				},
				{
					"constant": true,
					"inputs": [],
					"name": "isOwner",
					"outputs": [
						{
							"name": "",
							"type": "bool"
						}
					],
					"payable": false,
					"stateMutability": "view",
					"type": "function"
				},
				{
					"constant": true,
					"inputs": [
						{
							"name": "token",
							"type": "address"
						}
					],
					"name": "released",
					"outputs": [
						{
							"name": "",
							"type": "uint256"
						}
					],
					"payable": false,
					"stateMutability": "view",
					"type": "function"
				},
				{
					"constant": true,
					"inputs": [],
					"name": "start",
					"outputs": [
						{
							"name": "",
							"type": "uint256"
						}
					],
					"payable": false,
					"stateMutability": "view",
					"type": "function"
				},
				{
					"constant": false,
					"inputs": [
						{
							"name": "newOwner",
							"type": "address"
						}
					],
					"name": "transferOwnership",
					"outputs": [],
					"payable": false,
					"stateMutability": "nonpayable",
					"type": "function"
				},
				{
					"constant": true,
					"inputs": [
						{
							"name": "token",
							"type": "address"
						}
					],
					"name": "revoked",
					"outputs": [
						{
							"name": "",
							"type": "bool"
						}
					],
					"payable": false,
					"stateMutability": "view",
					"type": "function"
				},
				{
					"inputs": [
						{
							"name": "beneficiary",
							"type": "address"
						},
						{
							"name": "start",
							"type": "uint256"
						},
						{
							"name": "cliffDuration",
							"type": "uint256"
						},
						{
							"name": "duration",
							"type": "uint256"
						},
						{
							"name": "revocable",
							"type": "bool"
						}
					],
					"payable": false,
					"stateMutability": "nonpayable",
					"type": "constructor"
				},
				{
					"anonymous": false,
					"inputs": [
						{
							"indexed": false,
							"name": "token",
							"type": "address"
						},
						{
							"indexed": false,
							"name": "amount",
							"type": "uint256"
						}
					],
					"name": "TokensReleased",
					"type": "event"
				},
				{
					"anonymous": false,
					"inputs": [
						{
							"indexed": false,
							"name": "token",
							"type": "address"
						}
					],
					"name": "TokenVestingRevoked",
					"type": "event"
				},
				{
					"anonymous": false,
					"inputs": [
						{
							"indexed": true,
							"name": "previousOwner",
							"type": "address"
						},
						{
							"indexed": true,
							"name": "newOwner",
							"type": "address"
						}
					],
					"name": "OwnershipTransferred",
					"type": "event"
				}
			],
			"devdoc": {
				"methods": {
					"beneficiary()": {
						"return": "the beneficiary of the tokens."
					},
					"cliff()": {
						"return": "the cliff time of the token vesting."
					},
					"duration()": {
						"return": "the duration of the token vesting."
					},
					"release(address)": {
						"params": {
							"token": "ERC20 token which is being vested"
						}
					},
					"released(address)": {
						"return": "the amount of the token released."
					},
					"revocable()": {
						"return": "true if the vesting is revocable."
					},
					"revoke(address)": {
						"params": {
							"token": "ERC20 token which is being vested"
						}
					},
					"revoked(address)": {
						"return": "true if the token is revoked."
					},
					"start()": {
						"return": "the start time of the token vesting."
					}
				},
				"title": "TokenVesting"
			},
			"evm": {
				"assembly": "    /* \"contracts/TokenVesting.sol\":414:4810  contract TokenVesting is Ownable {... */\n  mstore(0x40, 0x80)\n    /* \"contracts/TokenVesting.sol\":1525:1977  constructor(... */\n  callvalue\n    /* \"--CODEGEN--\":8:17   */\n  dup1\n    /* \"--CODEGEN--\":5:7   */\n  iszero\n  tag_1\n  jumpi\n    /* \"--CODEGEN--\":30:31   */\n  0x0\n    /* \"--CODEGEN--\":27:28   */\n  dup1\n    /* \"--CODEGEN--\":20:32   */\n  revert\n    /* \"--CODEGEN--\":5:7   */\ntag_1:\n    /* \"contracts/TokenVesting.sol\":1525:1977  constructor(... */\n  pop\n  mload(0x40)\n  0xa0\n  dup1\n  bytecodeSize\n  dup4\n  codecopy\n  dup2\n  add\n  dup1\n  0x40\n  mstore\n  dup2\n  add\n  swap1\n  dup1\n  dup1\n  mload\n  swap1\n  0x20\n  add\n  swap1\n  swap3\n  swap2\n  swap1\n  dup1\n  mload\n  swap1\n  0x20\n  add\n  swap1\n  swap3\n  swap2\n  swap1\n  dup1\n  mload\n  swap1\n  0x20\n  add\n  swap1\n  swap3\n  swap2\n  swap1\n  dup1\n  mload\n  swap1\n  0x20\n  add\n  swap1\n  swap3\n  swap2\n  swap1\n  dup1\n  mload\n  swap1\n  0x20\n  add\n  swap1\n  swap3\n  swap2\n  swap1\n  pop\n  pop\n  pop\n    /* \"contracts/ownership/Ownable.sol\":216:226  msg.sender */\n  caller\n    /* \"contracts/ownership/Ownable.sol\":207:213  _owner */\n  0x0\n  dup1\n    /* \"contracts/ownership/Ownable.sol\":207:226  _owner = msg.sender */\n  0x100\n  exp\n  dup2\n  sload\n  dup2\n  0xffffffffffffffffffffffffffffffffffffffff\n  mul\n  not\n  and\n  swap1\n  dup4\n  0xffffffffffffffffffffffffffffffffffffffff\n  and\n  mul\n  or\n  swap1\n  sstore\n  pop\n    /* \"contracts/ownership/Ownable.sol\":275:281  _owner */\n  0x0\n  dup1\n  swap1\n  sload\n  swap1\n  0x100\n  exp\n  swap1\n  div\n  0xffffffffffffffffffffffffffffffffffffffff\n  and\n    /* \"contracts/ownership/Ownable.sol\":242:282  OwnershipTransferred(address(0), _owner) */\n  0xffffffffffffffffffffffffffffffffffffffff\n  and\n    /* \"contracts/ownership/Ownable.sol\":271:272  0 */\n  0x0\n    /* \"contracts/ownership/Ownable.sol\":242:282  OwnershipTransferred(address(0), _owner) */\n  0xffffffffffffffffffffffffffffffffffffffff\n  and\n  0x8be0079c531659141344cd1fd0a4f28419497f9722a3daafe3b4186f6b6457e0\n  mload(0x40)\n  mload(0x40)\n  dup1\n  swap2\n  sub\n  swap1\n  log3\n    /* \"contracts/TokenVesting.sol\":1704:1705  0 */\n  0x0\n    /* \"contracts/TokenVesting.sol\":1681:1706  beneficiary != address(0) */\n  0xffffffffffffffffffffffffffffffffffffffff\n  and\n    /* \"contracts/TokenVesting.sol\":1681:1692  beneficiary */\n  dup6\n    /* \"contracts/TokenVesting.sol\":1681:1706  beneficiary != address(0) */\n  0xffffffffffffffffffffffffffffffffffffffff\n  and\n  eq\n  iszero\n    /* \"contracts/TokenVesting.sol\":1673:1707  require(beneficiary != address(0)) */\n  iszero\n  iszero\n  tag_6\n  jumpi\n  0x0\n  dup1\n  revert\ntag_6:\n    /* \"contracts/TokenVesting.sol\":1738:1746  duration */\n  dup2\n    /* \"contracts/TokenVesting.sol\":1721:1734  cliffDuration */\n  dup4\n    /* \"contracts/TokenVesting.sol\":1721:1746  cliffDuration <= duration */\n  gt\n  iszero\n    /* \"contracts/TokenVesting.sol\":1713:1747  require(cliffDuration <= duration) */\n  iszero\n  iszero\n  tag_7\n  jumpi\n  0x0\n  dup1\n  revert\ntag_7:\n    /* \"contracts/TokenVesting.sol\":1772:1773  0 */\n  0x0\n    /* \"contracts/TokenVesting.sol\":1761:1769  duration */\n  dup3\n    /* \"contracts/TokenVesting.sol\":1761:1773  duration > 0 */\n  gt\n    /* \"contracts/TokenVesting.sol\":1753:1774  require(duration > 0) */\n  iszero\n  iszero\n  tag_8\n  jumpi\n  0x0\n  dup1\n  revert\ntag_8:\n    /* \"contracts/TokenVesting.sol\":1810:1825  block.timestamp */\n  timestamp\n    /* \"contracts/TokenVesting.sol\":1788:1807  start.add(duration) */\n  tag_9\n    /* \"contracts/TokenVesting.sol\":1798:1806  duration */\n  dup4\n    /* \"contracts/TokenVesting.sol\":1788:1793  start */\n  dup7\n    /* \"contracts/TokenVesting.sol\":1788:1797  start.add */\n  or(tag_0_61, mul(0x100000000, tag_10))\n  swap1\n    /* \"contracts/TokenVesting.sol\":1788:1807  start.add(duration) */\n  swap2\n  swap1\n  0x100000000\n  swap1\n  div\n  jump\t// in\ntag_9:\n    /* \"contracts/TokenVesting.sol\":1788:1825  start.add(duration) > block.timestamp */\n  gt\n    /* \"contracts/TokenVesting.sol\":1780:1826  require(start.add(duration) > block.timestamp) */\n  iszero\n  iszero\n  tag_11\n  jumpi\n  0x0\n  dup1\n  revert\ntag_11:\n    /* \"contracts/TokenVesting.sol\":1848:1859  beneficiary */\n  dup5\n    /* \"contracts/TokenVesting.sol\":1833:1845  _beneficiary */\n  0x1\n  0x0\n    /* \"contracts/TokenVesting.sol\":1833:1859  _beneficiary = beneficiary */\n  0x100\n  exp\n  dup2\n  sload\n  dup2\n  0xffffffffffffffffffffffffffffffffffffffff\n  mul\n  not\n  and\n  swap1\n  dup4\n  0xffffffffffffffffffffffffffffffffffffffff\n  and\n  mul\n  or\n  swap1\n  sstore\n  pop\n    /* \"contracts/TokenVesting.sol\":1878:1887  revocable */\n  dup1\n    /* \"contracts/TokenVesting.sol\":1865:1875  _revocable */\n  0x5\n  0x0\n    /* \"contracts/TokenVesting.sol\":1865:1887  _revocable = revocable */\n  0x100\n  exp\n  dup2\n  sload\n  dup2\n  0xff\n  mul\n  not\n  and\n  swap1\n  dup4\n  iszero\n  iszero\n  mul\n  or\n  swap1\n  sstore\n  pop\n    /* \"contracts/TokenVesting.sol\":1905:1913  duration */\n  dup2\n    /* \"contracts/TokenVesting.sol\":1893:1902  _duration */\n  0x4\n    /* \"contracts/TokenVesting.sol\":1893:1913  _duration = duration */\n  dup2\n  swap1\n  sstore\n  pop\n    /* \"contracts/TokenVesting.sol\":1928:1952  start.add(cliffDuration) */\n  tag_12\n    /* \"contracts/TokenVesting.sol\":1938:1951  cliffDuration */\n  dup4\n    /* \"contracts/TokenVesting.sol\":1928:1933  start */\n  dup6\n    /* \"contracts/TokenVesting.sol\":1928:1937  start.add */\n  or(tag_0_61, mul(0x100000000, tag_10))\n  swap1\n    /* \"contracts/TokenVesting.sol\":1928:1952  start.add(cliffDuration) */\n  swap2\n  swap1\n  0x100000000\n  swap1\n  div\n  jump\t// in\ntag_12:\n    /* \"contracts/TokenVesting.sol\":1919:1925  _cliff */\n  0x2\n    /* \"contracts/TokenVesting.sol\":1919:1952  _cliff = start.add(cliffDuration) */\n  dup2\n  swap1\n  sstore\n  pop\n    /* \"contracts/TokenVesting.sol\":1967:1972  start */\n  dup4\n    /* \"contracts/TokenVesting.sol\":1958:1964  _start */\n  0x3\n    /* \"contracts/TokenVesting.sol\":1958:1972  _start = start */\n  dup2\n  swap1\n  sstore\n  pop\n    /* \"contracts/TokenVesting.sol\":1525:1977  constructor(... */\n  pop\n  pop\n  pop\n  pop\n  pop\n    /* \"contracts/TokenVesting.sol\":414:4810  contract TokenVesting is Ownable {... */\n  jump(tag_13)\n    /* \"contracts/math/SafeMath.sol\":631:810  function add(uint256 a, uint256 b) internal pure returns (uint256) {\r... */\ntag_10:\n    /* \"contracts/math/SafeMath.sol\":689:696  uint256 */\n  0x0\n    /* \"contracts/math/SafeMath.sol\":709:718  uint256 c */\n  dup1\n    /* \"contracts/math/SafeMath.sol\":725:726  b */\n  dup3\n    /* \"contracts/math/SafeMath.sol\":721:722  a */\n  dup5\n    /* \"contracts/math/SafeMath.sol\":721:726  a + b */\n  add\n    /* \"contracts/math/SafeMath.sol\":709:726  uint256 c = a + b */\n  swap1\n  pop\n    /* \"contracts/math/SafeMath.sol\":750:751  a */\n  dup4\n    /* \"contracts/math/SafeMath.sol\":745:746  c */\n  dup2\n    /* \"contracts/math/SafeMath.sol\":745:751  c >= a */\n  lt\n  iszero\n    /* \"contracts/math/SafeMath.sol\":737:783  require(c >= a, \"SafeMath: addition overflow\") */\n  iszero\n  iszero\n  tag_15\n  jumpi\n  mload(0x40)\n  0x8c379a000000000000000000000000000000000000000000000000000000000\n  dup2\n  mstore\n  0x4\n  add\n  dup1\n  dup1\n  0x20\n  add\n  dup3\n  dup2\n  sub\n  dup3\n  mstore\n  0x1b\n  dup2\n  mstore\n  0x20\n  add\n  dup1\n  0x536166654d6174683a206164646974696f6e206f766572666c6f770000000000\n  dup2\n  mstore\n  pop\n  0x20\n  add\n  swap2\n  pop\n  pop\n  mload(0x40)\n  dup1\n  swap2\n  sub\n  swap1\n  revert\ntag_15:\n    /* \"contracts/math/SafeMath.sol\":801:802  c */\n  dup1\n    /* \"contracts/math/SafeMath.sol\":794:802  return c */\n  swap2\n  pop\n    /* \"contracts/math/SafeMath.sol\":631:810  function add(uint256 a, uint256 b) internal pure returns (uint256) {\r... */\n  pop\n  swap3\n  swap2\n  pop\n  pop\n  jump\t// out\n    /* \"contracts/TokenVesting.sol\":414:4810  contract TokenVesting is Ownable {... */\ntag_13:\n  dataSize(sub_0)\n  dup1\n  dataOffset(sub_0)\n  0x0\n  codecopy\n  0x0\n  return\nstop\n\nsub_0: assembly {\n        /* \"contracts/TokenVesting.sol\":414:4810  contract TokenVesting is Ownable {... */\n      mstore(0x40, 0x80)\n      jumpi(tag_1, lt(calldatasize, 0x4))\n      calldataload(0x0)\n      0x100000000000000000000000000000000000000000000000000000000\n      swap1\n      div\n      0xffffffff\n      and\n      dup1\n      0xfb5a6b4\n      eq\n      tag_2\n      jumpi\n      dup1\n      0x13d033c0\n      eq\n      tag_3\n      jumpi\n      dup1\n      0x19165587\n      eq\n      tag_4\n      jumpi\n      dup1\n      0x38af3eed\n      eq\n      tag_5\n      jumpi\n      dup1\n      0x715018a6\n      eq\n      tag_6\n      jumpi\n      dup1\n      0x74a8f103\n      eq\n      tag_7\n      jumpi\n      dup1\n      0x872a7810\n      eq\n      tag_8\n      jumpi\n      dup1\n      0x8da5cb5b\n      eq\n      tag_9\n      jumpi\n      dup1\n      0x8f32d59b\n      eq\n      tag_10\n      jumpi\n      dup1\n      0x9852595c\n      eq\n      tag_11\n      jumpi\n      dup1\n      0xbe9a6555\n      eq\n      tag_12\n      jumpi\n      dup1\n      0xf2fde38b\n      eq\n      tag_13\n      jumpi\n      dup1\n      0xfa01dc06\n      eq\n      tag_14\n      jumpi\n    tag_1:\n      0x0\n      dup1\n      revert\n        /* \"contracts/TokenVesting.sol\":2455:2531  function duration() public view returns(uint256) {... */\n    tag_2:\n      callvalue\n        /* \"--CODEGEN--\":8:17   */\n      dup1\n        /* \"--CODEGEN--\":5:7   */\n      iszero\n      tag_15\n      jumpi\n        /* \"--CODEGEN--\":30:31   */\n      0x0\n        /* \"--CODEGEN--\":27:28   */\n      dup1\n        /* \"--CODEGEN--\":20:32   */\n      revert\n        /* \"--CODEGEN--\":5:7   */\n    tag_15:\n        /* \"contracts/TokenVesting.sol\":2455:2531  function duration() public view returns(uint256) {... */\n      pop\n      tag_16\n      jump(tag_17)\n    tag_16:\n      mload(0x40)\n      dup1\n      dup3\n      dup2\n      mstore\n      0x20\n      add\n      swap2\n      pop\n      pop\n      mload(0x40)\n      dup1\n      swap2\n      sub\n      swap1\n      return\n        /* \"contracts/TokenVesting.sol\":2185:2255  function cliff() public view returns(uint256) {... */\n    tag_3:\n      callvalue\n        /* \"--CODEGEN--\":8:17   */\n      dup1\n        /* \"--CODEGEN--\":5:7   */\n      iszero\n      tag_18\n      jumpi\n        /* \"--CODEGEN--\":30:31   */\n      0x0\n        /* \"--CODEGEN--\":27:28   */\n      dup1\n        /* \"--CODEGEN--\":20:32   */\n      revert\n        /* \"--CODEGEN--\":5:7   */\n    tag_18:\n        /* \"contracts/TokenVesting.sol\":2185:2255  function cliff() public view returns(uint256) {... */\n      pop\n      tag_19\n      jump(tag_20)\n    tag_19:\n      mload(0x40)\n      dup1\n      dup3\n      dup2\n      mstore\n      0x20\n      add\n      swap2\n      pop\n      pop\n      mload(0x40)\n      dup1\n      swap2\n      sub\n      swap1\n      return\n        /* \"contracts/TokenVesting.sol\":3099:3377  function release(IERC20 token) public {... */\n    tag_4:\n      callvalue\n        /* \"--CODEGEN--\":8:17   */\n      dup1\n        /* \"--CODEGEN--\":5:7   */\n      iszero\n      tag_21\n      jumpi\n        /* \"--CODEGEN--\":30:31   */\n      0x0\n        /* \"--CODEGEN--\":27:28   */\n      dup1\n        /* \"--CODEGEN--\":20:32   */\n      revert\n        /* \"--CODEGEN--\":5:7   */\n    tag_21:\n        /* \"contracts/TokenVesting.sol\":3099:3377  function release(IERC20 token) public {... */\n      pop\n      tag_22\n      0x4\n      dup1\n      calldatasize\n      sub\n      dup2\n      add\n      swap1\n      dup1\n      dup1\n      calldataload\n      0xffffffffffffffffffffffffffffffffffffffff\n      and\n      swap1\n      0x20\n      add\n      swap1\n      swap3\n      swap2\n      swap1\n      pop\n      pop\n      pop\n      jump(tag_23)\n    tag_22:\n      stop\n        /* \"contracts/TokenVesting.sol\":2037:2119  function beneficiary() public view returns(address) {... */\n    tag_5:\n      callvalue\n        /* \"--CODEGEN--\":8:17   */\n      dup1\n        /* \"--CODEGEN--\":5:7   */\n      iszero\n      tag_24\n      jumpi\n        /* \"--CODEGEN--\":30:31   */\n      0x0\n        /* \"--CODEGEN--\":27:28   */\n      dup1\n        /* \"--CODEGEN--\":20:32   */\n      revert\n        /* \"--CODEGEN--\":5:7   */\n    tag_24:\n        /* \"contracts/TokenVesting.sol\":2037:2119  function beneficiary() public view returns(address) {... */\n      pop\n      tag_25\n      jump(tag_26)\n    tag_25:\n      mload(0x40)\n      dup1\n      dup3\n      0xffffffffffffffffffffffffffffffffffffffff\n      and\n      0xffffffffffffffffffffffffffffffffffffffff\n      and\n      dup2\n      mstore\n      0x20\n      add\n      swap2\n      pop\n      pop\n      mload(0x40)\n      dup1\n      swap2\n      sub\n      swap1\n      return\n        /* \"contracts/ownership/Ownable.sol\":599:739  function renounceOwnership() public onlyOwner {\r... */\n    tag_6:\n      callvalue\n        /* \"--CODEGEN--\":8:17   */\n      dup1\n        /* \"--CODEGEN--\":5:7   */\n      iszero\n      tag_27\n      jumpi\n        /* \"--CODEGEN--\":30:31   */\n      0x0\n        /* \"--CODEGEN--\":27:28   */\n      dup1\n        /* \"--CODEGEN--\":20:32   */\n      revert\n        /* \"--CODEGEN--\":5:7   */\n    tag_27:\n        /* \"contracts/ownership/Ownable.sol\":599:739  function renounceOwnership() public onlyOwner {\r... */\n      pop\n      tag_28\n      jump(tag_29)\n    tag_28:\n      stop\n        /* \"contracts/TokenVesting.sol\":3585:3955  function revoke(IERC20 token) public onlyOwner {... */\n    tag_7:\n      callvalue\n        /* \"--CODEGEN--\":8:17   */\n      dup1\n        /* \"--CODEGEN--\":5:7   */\n      iszero\n      tag_30\n      jumpi\n        /* \"--CODEGEN--\":30:31   */\n      0x0\n        /* \"--CODEGEN--\":27:28   */\n      dup1\n        /* \"--CODEGEN--\":20:32   */\n      revert\n        /* \"--CODEGEN--\":5:7   */\n    tag_30:\n        /* \"contracts/TokenVesting.sol\":3585:3955  function revoke(IERC20 token) public onlyOwner {... */\n      pop\n      tag_31\n      0x4\n      dup1\n      calldatasize\n      sub\n      dup2\n      add\n      swap1\n      dup1\n      dup1\n      calldataload\n      0xffffffffffffffffffffffffffffffffffffffff\n      and\n      swap1\n      0x20\n      add\n      swap1\n      swap3\n      swap2\n      swap1\n      pop\n      pop\n      pop\n      jump(tag_32)\n    tag_31:\n      stop\n        /* \"contracts/TokenVesting.sol\":2594:2669  function revocable() public view returns(bool) {... */\n    tag_8:\n      callvalue\n        /* \"--CODEGEN--\":8:17   */\n      dup1\n        /* \"--CODEGEN--\":5:7   */\n      iszero\n      tag_33\n      jumpi\n        /* \"--CODEGEN--\":30:31   */\n      0x0\n        /* \"--CODEGEN--\":27:28   */\n      dup1\n        /* \"--CODEGEN--\":20:32   */\n      revert\n        /* \"--CODEGEN--\":5:7   */\n    tag_33:\n        /* \"contracts/TokenVesting.sol\":2594:2669  function revocable() public view returns(bool) {... */\n      pop\n      tag_34\n      jump(tag_35)\n    tag_34:\n      mload(0x40)\n      dup1\n      dup3\n      iszero\n      iszero\n      iszero\n      iszero\n      dup2\n      mstore\n      0x20\n      add\n      swap2\n      pop\n      pop\n      mload(0x40)\n      dup1\n      swap2\n      sub\n      swap1\n      return\n        /* \"contracts/ownership/Ownable.sol\":298:377  function owner() public view returns (address) {\r... */\n    tag_9:\n      callvalue\n        /* \"--CODEGEN--\":8:17   */\n      dup1\n        /* \"--CODEGEN--\":5:7   */\n      iszero\n      tag_36\n      jumpi\n        /* \"--CODEGEN--\":30:31   */\n      0x0\n        /* \"--CODEGEN--\":27:28   */\n      dup1\n        /* \"--CODEGEN--\":20:32   */\n      revert\n        /* \"--CODEGEN--\":5:7   */\n    tag_36:\n        /* \"contracts/ownership/Ownable.sol\":298:377  function owner() public view returns (address) {\r... */\n      pop\n      tag_37\n      jump(tag_38)\n    tag_37:\n      mload(0x40)\n      dup1\n      dup3\n      0xffffffffffffffffffffffffffffffffffffffff\n      and\n      0xffffffffffffffffffffffffffffffffffffffff\n      and\n      dup2\n      mstore\n      0x20\n      add\n      swap2\n      pop\n      pop\n      mload(0x40)\n      dup1\n      swap2\n      sub\n      swap1\n      return\n        /* \"contracts/ownership/Ownable.sol\":499:591  function isOwner() public view returns (bool) {\r... */\n    tag_10:\n      callvalue\n        /* \"--CODEGEN--\":8:17   */\n      dup1\n        /* \"--CODEGEN--\":5:7   */\n      iszero\n      tag_39\n      jumpi\n        /* \"--CODEGEN--\":30:31   */\n      0x0\n        /* \"--CODEGEN--\":27:28   */\n      dup1\n        /* \"--CODEGEN--\":20:32   */\n      revert\n        /* \"--CODEGEN--\":5:7   */\n    tag_39:\n        /* \"contracts/ownership/Ownable.sol\":499:591  function isOwner() public view returns (bool) {\r... */\n      pop\n      tag_40\n      jump(tag_41)\n    tag_40:\n      mload(0x40)\n      dup1\n      dup3\n      iszero\n      iszero\n      iszero\n      iszero\n      dup2\n      mstore\n      0x20\n      add\n      swap2\n      pop\n      pop\n      mload(0x40)\n      dup1\n      swap2\n      sub\n      swap1\n      return\n        /* \"contracts/TokenVesting.sol\":2732:2828  function released(address token) public view returns(uint256) {... */\n    tag_11:\n      callvalue\n        /* \"--CODEGEN--\":8:17   */\n      dup1\n        /* \"--CODEGEN--\":5:7   */\n      iszero\n      tag_42\n      jumpi\n        /* \"--CODEGEN--\":30:31   */\n      0x0\n        /* \"--CODEGEN--\":27:28   */\n      dup1\n        /* \"--CODEGEN--\":20:32   */\n      revert\n        /* \"--CODEGEN--\":5:7   */\n    tag_42:\n        /* \"contracts/TokenVesting.sol\":2732:2828  function released(address token) public view returns(uint256) {... */\n      pop\n      tag_43\n      0x4\n      dup1\n      calldatasize\n      sub\n      dup2\n      add\n      swap1\n      dup1\n      dup1\n      calldataload\n      0xffffffffffffffffffffffffffffffffffffffff\n      and\n      swap1\n      0x20\n      add\n      swap1\n      swap3\n      swap2\n      swap1\n      pop\n      pop\n      pop\n      jump(tag_44)\n    tag_43:\n      mload(0x40)\n      dup1\n      dup3\n      dup2\n      mstore\n      0x20\n      add\n      swap2\n      pop\n      pop\n      mload(0x40)\n      dup1\n      swap2\n      sub\n      swap1\n      return\n        /* \"contracts/TokenVesting.sol\":2321:2391  function start() public view returns(uint256) {... */\n    tag_12:\n      callvalue\n        /* \"--CODEGEN--\":8:17   */\n      dup1\n        /* \"--CODEGEN--\":5:7   */\n      iszero\n      tag_45\n      jumpi\n        /* \"--CODEGEN--\":30:31   */\n      0x0\n        /* \"--CODEGEN--\":27:28   */\n      dup1\n        /* \"--CODEGEN--\":20:32   */\n      revert\n        /* \"--CODEGEN--\":5:7   */\n    tag_45:\n        /* \"contracts/TokenVesting.sol\":2321:2391  function start() public view returns(uint256) {... */\n      pop\n      tag_46\n      jump(tag_47)\n    tag_46:\n      mload(0x40)\n      dup1\n      dup3\n      dup2\n      mstore\n      0x20\n      add\n      swap2\n      pop\n      pop\n      mload(0x40)\n      dup1\n      swap2\n      sub\n      swap1\n      return\n        /* \"contracts/ownership/Ownable.sol\":747:983  function transferOwnership(address newOwner) public onlyOwner {\r... */\n    tag_13:\n      callvalue\n        /* \"--CODEGEN--\":8:17   */\n      dup1\n        /* \"--CODEGEN--\":5:7   */\n      iszero\n      tag_48\n      jumpi\n        /* \"--CODEGEN--\":30:31   */\n      0x0\n        /* \"--CODEGEN--\":27:28   */\n      dup1\n        /* \"--CODEGEN--\":20:32   */\n      revert\n        /* \"--CODEGEN--\":5:7   */\n    tag_48:\n        /* \"contracts/ownership/Ownable.sol\":747:983  function transferOwnership(address newOwner) public onlyOwner {\r... */\n      pop\n      tag_49\n      0x4\n      dup1\n      calldatasize\n      sub\n      dup2\n      add\n      swap1\n      dup1\n      dup1\n      calldataload\n      0xffffffffffffffffffffffffffffffffffffffff\n      and\n      swap1\n      0x20\n      add\n      swap1\n      swap3\n      swap2\n      swap1\n      pop\n      pop\n      pop\n      jump(tag_50)\n    tag_49:\n      stop\n        /* \"contracts/TokenVesting.sol\":2887:2978  function revoked(address token) public view returns(bool) {... */\n    tag_14:\n      callvalue\n        /* \"--CODEGEN--\":8:17   */\n      dup1\n        /* \"--CODEGEN--\":5:7   */\n      iszero\n      tag_51\n      jumpi\n        /* \"--CODEGEN--\":30:31   */\n      0x0\n        /* \"--CODEGEN--\":27:28   */\n      dup1\n        /* \"--CODEGEN--\":20:32   */\n      revert\n        /* \"--CODEGEN--\":5:7   */\n    tag_51:\n        /* \"contracts/TokenVesting.sol\":2887:2978  function revoked(address token) public view returns(bool) {... */\n      pop\n      tag_52\n      0x4\n      dup1\n      calldatasize\n      sub\n      dup2\n      add\n      swap1\n      dup1\n      dup1\n      calldataload\n      0xffffffffffffffffffffffffffffffffffffffff\n      and\n      swap1\n      0x20\n      add\n      swap1\n      swap3\n      swap2\n      swap1\n      pop\n      pop\n      pop\n      jump(tag_53)\n    tag_52:\n      mload(0x40)\n      dup1\n      dup3\n      iszero\n      iszero\n      iszero\n      iszero\n      dup2\n      mstore\n      0x20\n      add\n      swap2\n      pop\n      pop\n      mload(0x40)\n      dup1\n      swap2\n      sub\n      swap1\n      return\n        /* \"contracts/TokenVesting.sol\":2455:2531  function duration() public view returns(uint256) {... */\n    tag_17:\n        /* \"contracts/TokenVesting.sol\":2495:2502  uint256 */\n      0x0\n        /* \"contracts/TokenVesting.sol\":2517:2526  _duration */\n      sload(0x4)\n        /* \"contracts/TokenVesting.sol\":2510:2526  return _duration */\n      swap1\n      pop\n        /* \"contracts/TokenVesting.sol\":2455:2531  function duration() public view returns(uint256) {... */\n      swap1\n      jump\t// out\n        /* \"contracts/TokenVesting.sol\":2185:2255  function cliff() public view returns(uint256) {... */\n    tag_20:\n        /* \"contracts/TokenVesting.sol\":2222:2229  uint256 */\n      0x0\n        /* \"contracts/TokenVesting.sol\":2244:2250  _cliff */\n      sload(0x2)\n        /* \"contracts/TokenVesting.sol\":2237:2250  return _cliff */\n      swap1\n      pop\n        /* \"contracts/TokenVesting.sol\":2185:2255  function cliff() public view returns(uint256) {... */\n      swap1\n      jump\t// out\n        /* \"contracts/TokenVesting.sol\":3099:3377  function release(IERC20 token) public {... */\n    tag_23:\n        /* \"contracts/TokenVesting.sol\":3143:3161  uint256 unreleased */\n      0x0\n        /* \"contracts/TokenVesting.sol\":3164:3188  _releasableAmount(token) */\n      tag_57\n        /* \"contracts/TokenVesting.sol\":3182:3187  token */\n      dup3\n        /* \"contracts/TokenVesting.sol\":3164:3181  _releasableAmount */\n      tag_58\n        /* \"contracts/TokenVesting.sol\":3164:3188  _releasableAmount(token) */\n      jump\t// in\n    tag_57:\n        /* \"contracts/TokenVesting.sol\":3143:3188  uint256 unreleased = _releasableAmount(token) */\n      swap1\n      pop\n        /* \"contracts/TokenVesting.sol\":3216:3217  0 */\n      0x0\n        /* \"contracts/TokenVesting.sol\":3203:3213  unreleased */\n      dup2\n        /* \"contracts/TokenVesting.sol\":3203:3217  unreleased > 0 */\n      gt\n        /* \"contracts/TokenVesting.sol\":3195:3218  require(unreleased > 0) */\n      iszero\n      iszero\n      tag_59\n      jumpi\n      0x0\n      dup1\n      revert\n    tag_59:\n        /* \"contracts/TokenVesting.sol\":3244:3276  _released[token].add(unreleased) */\n      tag_60\n        /* \"contracts/TokenVesting.sol\":3265:3275  unreleased */\n      dup2\n        /* \"contracts/TokenVesting.sol\":3244:3253  _released */\n      0x6\n        /* \"contracts/TokenVesting.sol\":3244:3260  _released[token] */\n      0x0\n        /* \"contracts/TokenVesting.sol\":3254:3259  token */\n      dup6\n        /* \"contracts/TokenVesting.sol\":3244:3260  _released[token] */\n      0xffffffffffffffffffffffffffffffffffffffff\n      and\n      0xffffffffffffffffffffffffffffffffffffffff\n      and\n      dup2\n      mstore\n      0x20\n      add\n      swap1\n      dup2\n      mstore\n      0x20\n      add\n      0x0\n      keccak256\n      sload\n        /* \"contracts/TokenVesting.sol\":3244:3264  _released[token].add */\n      tag_61\n      swap1\n        /* \"contracts/TokenVesting.sol\":3244:3276  _released[token].add(unreleased) */\n      swap2\n      swap1\n      0xffffffff\n      and\n      jump\t// in\n    tag_60:\n        /* \"contracts/TokenVesting.sol\":3225:3234  _released */\n      0x6\n        /* \"contracts/TokenVesting.sol\":3225:3241  _released[token] */\n      0x0\n        /* \"contracts/TokenVesting.sol\":3235:3240  token */\n      dup5\n        /* \"contracts/TokenVesting.sol\":3225:3241  _released[token] */\n      0xffffffffffffffffffffffffffffffffffffffff\n      and\n      0xffffffffffffffffffffffffffffffffffffffff\n      and\n      dup2\n      mstore\n      0x20\n      add\n      swap1\n      dup2\n      mstore\n      0x20\n      add\n      0x0\n      keccak256\n        /* \"contracts/TokenVesting.sol\":3225:3276  _released[token] = _released[token].add(unreleased) */\n      dup2\n      swap1\n      sstore\n      pop\n        /* \"contracts/TokenVesting.sol\":3283:3327  token.safeTransfer(_beneficiary, unreleased) */\n      tag_62\n        /* \"contracts/TokenVesting.sol\":3302:3314  _beneficiary */\n      0x1\n      0x0\n      swap1\n      sload\n      swap1\n      0x100\n      exp\n      swap1\n      div\n      0xffffffffffffffffffffffffffffffffffffffff\n      and\n        /* \"contracts/TokenVesting.sol\":3316:3326  unreleased */\n      dup3\n        /* \"contracts/TokenVesting.sol\":3283:3288  token */\n      dup5\n        /* \"contracts/TokenVesting.sol\":3283:3301  token.safeTransfer */\n      0xffffffffffffffffffffffffffffffffffffffff\n      and\n      tag_63\n      swap1\n        /* \"contracts/TokenVesting.sol\":3283:3327  token.safeTransfer(_beneficiary, unreleased) */\n      swap3\n      swap2\n      swap1\n      0xffffffff\n      and\n      jump\t// in\n    tag_62:\n        /* \"contracts/TokenVesting.sol\":3339:3372  TokensReleased(token, unreleased) */\n      0xc7798891864187665ac6dd119286e44ec13f014527aeeb2b8eb3fd413df93179\n        /* \"contracts/TokenVesting.sol\":3354:3359  token */\n      dup3\n        /* \"contracts/TokenVesting.sol\":3361:3371  unreleased */\n      dup3\n        /* \"contracts/TokenVesting.sol\":3339:3372  TokensReleased(token, unreleased) */\n      mload(0x40)\n      dup1\n      dup4\n      0xffffffffffffffffffffffffffffffffffffffff\n      and\n      0xffffffffffffffffffffffffffffffffffffffff\n      and\n      dup2\n      mstore\n      0x20\n      add\n      dup3\n      dup2\n      mstore\n      0x20\n      add\n      swap3\n      pop\n      pop\n      pop\n      mload(0x40)\n      dup1\n      swap2\n      sub\n      swap1\n      log1\n        /* \"contracts/TokenVesting.sol\":3099:3377  function release(IERC20 token) public {... */\n      pop\n      pop\n      jump\t// out\n        /* \"contracts/TokenVesting.sol\":2037:2119  function beneficiary() public view returns(address) {... */\n    tag_26:\n        /* \"contracts/TokenVesting.sol\":2080:2087  address */\n      0x0\n        /* \"contracts/TokenVesting.sol\":2102:2114  _beneficiary */\n      0x1\n      0x0\n      swap1\n      sload\n      swap1\n      0x100\n      exp\n      swap1\n      div\n      0xffffffffffffffffffffffffffffffffffffffff\n      and\n        /* \"contracts/TokenVesting.sol\":2095:2114  return _beneficiary */\n      swap1\n      pop\n        /* \"contracts/TokenVesting.sol\":2037:2119  function beneficiary() public view returns(address) {... */\n      swap1\n      jump\t// out\n        /* \"contracts/ownership/Ownable.sol\":599:739  function renounceOwnership() public onlyOwner {\r... */\n    tag_29:\n        /* \"contracts/ownership/Ownable.sol\":425:434  isOwner() */\n      tag_66\n        /* \"contracts/ownership/Ownable.sol\":425:432  isOwner */\n      tag_41\n        /* \"contracts/ownership/Ownable.sol\":425:434  isOwner() */\n      jump\t// in\n    tag_66:\n        /* \"contracts/ownership/Ownable.sol\":417:471  require(isOwner(), \"Ownable: caller is not the owner\") */\n      iszero\n      iszero\n      tag_67\n      jumpi\n      mload(0x40)\n      0x8c379a000000000000000000000000000000000000000000000000000000000\n      dup2\n      mstore\n      0x4\n      add\n      dup1\n      dup1\n      0x20\n      add\n      dup3\n      dup2\n      sub\n      dup3\n      mstore\n      0x20\n      dup2\n      mstore\n      0x20\n      add\n      dup1\n      0x4f776e61626c653a2063616c6c6572206973206e6f7420746865206f776e6572\n      dup2\n      mstore\n      pop\n      0x20\n      add\n      swap2\n      pop\n      pop\n      mload(0x40)\n      dup1\n      swap2\n      sub\n      swap1\n      revert\n    tag_67:\n        /* \"contracts/ownership/Ownable.sol\":698:699  0 */\n      0x0\n        /* \"contracts/ownership/Ownable.sol\":661:701  OwnershipTransferred(_owner, address(0)) */\n      0xffffffffffffffffffffffffffffffffffffffff\n      and\n        /* \"contracts/ownership/Ownable.sol\":682:688  _owner */\n      0x0\n      dup1\n      swap1\n      sload\n      swap1\n      0x100\n      exp\n      swap1\n      div\n      0xffffffffffffffffffffffffffffffffffffffff\n      and\n        /* \"contracts/ownership/Ownable.sol\":661:701  OwnershipTransferred(_owner, address(0)) */\n      0xffffffffffffffffffffffffffffffffffffffff\n      and\n      0x8be0079c531659141344cd1fd0a4f28419497f9722a3daafe3b4186f6b6457e0\n      mload(0x40)\n      mload(0x40)\n      dup1\n      swap2\n      sub\n      swap1\n      log3\n        /* \"contracts/ownership/Ownable.sol\":729:730  0 */\n      0x0\n        /* \"contracts/ownership/Ownable.sol\":712:718  _owner */\n      dup1\n      0x0\n        /* \"contracts/ownership/Ownable.sol\":712:731  _owner = address(0) */\n      0x100\n      exp\n      dup2\n      sload\n      dup2\n      0xffffffffffffffffffffffffffffffffffffffff\n      mul\n      not\n      and\n      swap1\n      dup4\n      0xffffffffffffffffffffffffffffffffffffffff\n      and\n      mul\n      or\n      swap1\n      sstore\n      pop\n        /* \"contracts/ownership/Ownable.sol\":599:739  function renounceOwnership() public onlyOwner {\r... */\n      jump\t// out\n        /* \"contracts/TokenVesting.sol\":3585:3955  function revoke(IERC20 token) public onlyOwner {... */\n    tag_32:\n        /* \"contracts/TokenVesting.sol\":3695:3710  uint256 balance */\n      0x0\n        /* \"contracts/TokenVesting.sol\":3750:3768  uint256 unreleased */\n      dup1\n        /* \"contracts/TokenVesting.sol\":3801:3815  uint256 refund */\n      0x0\n        /* \"contracts/ownership/Ownable.sol\":425:434  isOwner() */\n      tag_70\n        /* \"contracts/ownership/Ownable.sol\":425:432  isOwner */\n      tag_41\n        /* \"contracts/ownership/Ownable.sol\":425:434  isOwner() */\n      jump\t// in\n    tag_70:\n        /* \"contracts/ownership/Ownable.sol\":417:471  require(isOwner(), \"Ownable: caller is not the owner\") */\n      iszero\n      iszero\n      tag_71\n      jumpi\n      mload(0x40)\n      0x8c379a000000000000000000000000000000000000000000000000000000000\n      dup2\n      mstore\n      0x4\n      add\n      dup1\n      dup1\n      0x20\n      add\n      dup3\n      dup2\n      sub\n      dup3\n      mstore\n      0x20\n      dup2\n      mstore\n      0x20\n      add\n      dup1\n      0x4f776e61626c653a2063616c6c6572206973206e6f7420746865206f776e6572\n      dup2\n      mstore\n      pop\n      0x20\n      add\n      swap2\n      pop\n      pop\n      mload(0x40)\n      dup1\n      swap2\n      sub\n      swap1\n      revert\n    tag_71:\n        /* \"contracts/TokenVesting.sol\":3646:3656  _revocable */\n      0x5\n      0x0\n      swap1\n      sload\n      swap1\n      0x100\n      exp\n      swap1\n      div\n      0xff\n      and\n        /* \"contracts/TokenVesting.sol\":3638:3657  require(_revocable) */\n      iszero\n      iszero\n      tag_73\n      jumpi\n      0x0\n      dup1\n      revert\n    tag_73:\n        /* \"contracts/TokenVesting.sol\":3672:3680  _revoked */\n      0x7\n        /* \"contracts/TokenVesting.sol\":3672:3687  _revoked[token] */\n      0x0\n        /* \"contracts/TokenVesting.sol\":3681:3686  token */\n      dup6\n        /* \"contracts/TokenVesting.sol\":3672:3687  _revoked[token] */\n      0xffffffffffffffffffffffffffffffffffffffff\n      and\n      0xffffffffffffffffffffffffffffffffffffffff\n      and\n      dup2\n      mstore\n      0x20\n      add\n      swap1\n      dup2\n      mstore\n      0x20\n      add\n      0x0\n      keccak256\n      0x0\n      swap1\n      sload\n      swap1\n      0x100\n      exp\n      swap1\n      div\n      0xff\n      and\n        /* \"contracts/TokenVesting.sol\":3671:3687  !_revoked[token] */\n      iszero\n        /* \"contracts/TokenVesting.sol\":3663:3688  require(!_revoked[token]) */\n      iszero\n      iszero\n      tag_74\n      jumpi\n      0x0\n      dup1\n      revert\n    tag_74:\n        /* \"contracts/TokenVesting.sol\":3713:3718  token */\n      dup4\n        /* \"contracts/TokenVesting.sol\":3713:3728  token.balanceOf */\n      0xffffffffffffffffffffffffffffffffffffffff\n      and\n      0x70a08231\n        /* \"contracts/TokenVesting.sol\":3737:3741  this */\n      address\n        /* \"contracts/TokenVesting.sol\":3713:3743  token.balanceOf(address(this)) */\n      mload(0x40)\n      dup3\n      0xffffffff\n      and\n      0x100000000000000000000000000000000000000000000000000000000\n      mul\n      dup2\n      mstore\n      0x4\n      add\n      dup1\n      dup3\n      0xffffffffffffffffffffffffffffffffffffffff\n      and\n      0xffffffffffffffffffffffffffffffffffffffff\n      and\n      dup2\n      mstore\n      0x20\n      add\n      swap2\n      pop\n      pop\n      0x20\n      mload(0x40)\n      dup1\n      dup4\n      sub\n      dup2\n      0x0\n      dup8\n      dup1\n      extcodesize\n      iszero\n        /* \"--CODEGEN--\":8:17   */\n      dup1\n        /* \"--CODEGEN--\":5:7   */\n      iszero\n      tag_75\n      jumpi\n        /* \"--CODEGEN--\":30:31   */\n      0x0\n        /* \"--CODEGEN--\":27:28   */\n      dup1\n        /* \"--CODEGEN--\":20:32   */\n      revert\n        /* \"--CODEGEN--\":5:7   */\n    tag_75:\n        /* \"contracts/TokenVesting.sol\":3713:3743  token.balanceOf(address(this)) */\n      pop\n      gas\n      call\n      iszero\n        /* \"--CODEGEN--\":8:17   */\n      dup1\n        /* \"--CODEGEN--\":5:7   */\n      iszero\n      tag_76\n      jumpi\n        /* \"--CODEGEN--\":45:61   */\n      returndatasize\n        /* \"--CODEGEN--\":42:43   */\n      0x0\n        /* \"--CODEGEN--\":39:40   */\n      dup1\n        /* \"--CODEGEN--\":24:62   */\n      returndatacopy\n        /* \"--CODEGEN--\":77:93   */\n      returndatasize\n        /* \"--CODEGEN--\":74:75   */\n      0x0\n        /* \"--CODEGEN--\":67:94   */\n      revert\n        /* \"--CODEGEN--\":5:7   */\n    tag_76:\n        /* \"contracts/TokenVesting.sol\":3713:3743  token.balanceOf(address(this)) */\n      pop\n      pop\n      pop\n      pop\n      mload(0x40)\n      returndatasize\n        /* \"--CODEGEN--\":13:15   */\n      0x20\n        /* \"--CODEGEN--\":8:11   */\n      dup2\n        /* \"--CODEGEN--\":5:16   */\n      lt\n        /* \"--CODEGEN--\":2:4   */\n      iszero\n      tag_77\n      jumpi\n        /* \"--CODEGEN--\":29:30   */\n      0x0\n        /* \"--CODEGEN--\":26:27   */\n      dup1\n        /* \"--CODEGEN--\":19:31   */\n      revert\n        /* \"--CODEGEN--\":2:4   */\n    tag_77:\n        /* \"contracts/TokenVesting.sol\":3713:3743  token.balanceOf(address(this)) */\n      dup2\n      add\n      swap1\n      dup1\n      dup1\n      mload\n      swap1\n      0x20\n      add\n      swap1\n      swap3\n      swap2\n      swap1\n      pop\n      pop\n      pop\n        /* \"contracts/TokenVesting.sol\":3695:3743  uint256 balance = token.balanceOf(address(this)) */\n      swap3\n      pop\n        /* \"contracts/TokenVesting.sol\":3771:3795  _releasableAmount(token) */\n      tag_78\n        /* \"contracts/TokenVesting.sol\":3789:3794  token */\n      dup5\n        /* \"contracts/TokenVesting.sol\":3771:3788  _releasableAmount */\n      tag_58\n        /* \"contracts/TokenVesting.sol\":3771:3795  _releasableAmount(token) */\n      jump\t// in\n    tag_78:\n        /* \"contracts/TokenVesting.sol\":3750:3795  uint256 unreleased = _releasableAmount(token) */\n      swap2\n      pop\n        /* \"contracts/TokenVesting.sol\":3818:3841  balance.sub(unreleased) */\n      tag_79\n        /* \"contracts/TokenVesting.sol\":3830:3840  unreleased */\n      dup3\n        /* \"contracts/TokenVesting.sol\":3818:3825  balance */\n      dup5\n        /* \"contracts/TokenVesting.sol\":3818:3829  balance.sub */\n      tag_80\n      swap1\n        /* \"contracts/TokenVesting.sol\":3818:3841  balance.sub(unreleased) */\n      swap2\n      swap1\n      0xffffffff\n      and\n      jump\t// in\n    tag_79:\n        /* \"contracts/TokenVesting.sol\":3801:3841  uint256 refund = balance.sub(unreleased) */\n      swap1\n      pop\n        /* \"contracts/TokenVesting.sol\":3866:3870  true */\n      0x1\n        /* \"contracts/TokenVesting.sol\":3848:3856  _revoked */\n      0x7\n        /* \"contracts/TokenVesting.sol\":3848:3863  _revoked[token] */\n      0x0\n        /* \"contracts/TokenVesting.sol\":3857:3862  token */\n      dup7\n        /* \"contracts/TokenVesting.sol\":3848:3863  _revoked[token] */\n      0xffffffffffffffffffffffffffffffffffffffff\n      and\n      0xffffffffffffffffffffffffffffffffffffffff\n      and\n      dup2\n      mstore\n      0x20\n      add\n      swap1\n      dup2\n      mstore\n      0x20\n      add\n      0x0\n      keccak256\n      0x0\n        /* \"contracts/TokenVesting.sol\":3848:3870  _revoked[token] = true */\n      0x100\n      exp\n      dup2\n      sload\n      dup2\n      0xff\n      mul\n      not\n      and\n      swap1\n      dup4\n      iszero\n      iszero\n      mul\n      or\n      swap1\n      sstore\n      pop\n        /* \"contracts/TokenVesting.sol\":3877:3912  token.safeTransfer(owner(), refund) */\n      tag_81\n        /* \"contracts/TokenVesting.sol\":3896:3903  owner() */\n      tag_82\n        /* \"contracts/TokenVesting.sol\":3896:3901  owner */\n      tag_38\n        /* \"contracts/TokenVesting.sol\":3896:3903  owner() */\n      jump\t// in\n    tag_82:\n        /* \"contracts/TokenVesting.sol\":3905:3911  refund */\n      dup3\n        /* \"contracts/TokenVesting.sol\":3877:3882  token */\n      dup7\n        /* \"contracts/TokenVesting.sol\":3877:3895  token.safeTransfer */\n      0xffffffffffffffffffffffffffffffffffffffff\n      and\n      tag_63\n      swap1\n        /* \"contracts/TokenVesting.sol\":3877:3912  token.safeTransfer(owner(), refund) */\n      swap3\n      swap2\n      swap1\n      0xffffffff\n      and\n      jump\t// in\n    tag_81:\n        /* \"contracts/TokenVesting.sol\":3924:3950  TokenVestingRevoked(token) */\n      0x39983c6d4d174a7aee564f449d4a5c3c7ac9649d72b7793c56901183996f8af6\n        /* \"contracts/TokenVesting.sol\":3944:3949  token */\n      dup5\n        /* \"contracts/TokenVesting.sol\":3924:3950  TokenVestingRevoked(token) */\n      mload(0x40)\n      dup1\n      dup3\n      0xffffffffffffffffffffffffffffffffffffffff\n      and\n      0xffffffffffffffffffffffffffffffffffffffff\n      and\n      dup2\n      mstore\n      0x20\n      add\n      swap2\n      pop\n      pop\n      mload(0x40)\n      dup1\n      swap2\n      sub\n      swap1\n      log1\n        /* \"contracts/TokenVesting.sol\":3585:3955  function revoke(IERC20 token) public onlyOwner {... */\n      pop\n      pop\n      pop\n      pop\n      jump\t// out\n        /* \"contracts/TokenVesting.sol\":2594:2669  function revocable() public view returns(bool) {... */\n    tag_35:\n        /* \"contracts/TokenVesting.sol\":2635:2639  bool */\n      0x0\n        /* \"contracts/TokenVesting.sol\":2654:2664  _revocable */\n      0x5\n      0x0\n      swap1\n      sload\n      swap1\n      0x100\n      exp\n      swap1\n      div\n      0xff\n      and\n        /* \"contracts/TokenVesting.sol\":2647:2664  return _revocable */\n      swap1\n      pop\n        /* \"contracts/TokenVesting.sol\":2594:2669  function revocable() public view returns(bool) {... */\n      swap1\n      jump\t// out\n        /* \"contracts/ownership/Ownable.sol\":298:377  function owner() public view returns (address) {\r... */\n    tag_38:\n        /* \"contracts/ownership/Ownable.sol\":336:343  address */\n      0x0\n        /* \"contracts/ownership/Ownable.sol\":363:369  _owner */\n      dup1\n      0x0\n      swap1\n      sload\n      swap1\n      0x100\n      exp\n      swap1\n      div\n      0xffffffffffffffffffffffffffffffffffffffff\n      and\n        /* \"contracts/ownership/Ownable.sol\":356:369  return _owner */\n      swap1\n      pop\n        /* \"contracts/ownership/Ownable.sol\":298:377  function owner() public view returns (address) {\r... */\n      swap1\n      jump\t// out\n        /* \"contracts/ownership/Ownable.sol\":499:591  function isOwner() public view returns (bool) {\r... */\n    tag_41:\n        /* \"contracts/ownership/Ownable.sol\":539:543  bool */\n      0x0\n        /* \"contracts/ownership/Ownable.sol\":577:583  _owner */\n      dup1\n      0x0\n      swap1\n      sload\n      swap1\n      0x100\n      exp\n      swap1\n      div\n      0xffffffffffffffffffffffffffffffffffffffff\n      and\n        /* \"contracts/ownership/Ownable.sol\":563:583  msg.sender == _owner */\n      0xffffffffffffffffffffffffffffffffffffffff\n      and\n        /* \"contracts/ownership/Ownable.sol\":563:573  msg.sender */\n      caller\n        /* \"contracts/ownership/Ownable.sol\":563:583  msg.sender == _owner */\n      0xffffffffffffffffffffffffffffffffffffffff\n      and\n      eq\n        /* \"contracts/ownership/Ownable.sol\":556:583  return msg.sender == _owner */\n      swap1\n      pop\n        /* \"contracts/ownership/Ownable.sol\":499:591  function isOwner() public view returns (bool) {\r... */\n      swap1\n      jump\t// out\n        /* \"contracts/TokenVesting.sol\":2732:2828  function released(address token) public view returns(uint256) {... */\n    tag_44:\n        /* \"contracts/TokenVesting.sol\":2785:2792  uint256 */\n      0x0\n        /* \"contracts/TokenVesting.sol\":2807:2816  _released */\n      0x6\n        /* \"contracts/TokenVesting.sol\":2807:2823  _released[token] */\n      0x0\n        /* \"contracts/TokenVesting.sol\":2817:2822  token */\n      dup4\n        /* \"contracts/TokenVesting.sol\":2807:2823  _released[token] */\n      0xffffffffffffffffffffffffffffffffffffffff\n      and\n      0xffffffffffffffffffffffffffffffffffffffff\n      and\n      dup2\n      mstore\n      0x20\n      add\n      swap1\n      dup2\n      mstore\n      0x20\n      add\n      0x0\n      keccak256\n      sload\n        /* \"contracts/TokenVesting.sol\":2800:2823  return _released[token] */\n      swap1\n      pop\n        /* \"contracts/TokenVesting.sol\":2732:2828  function released(address token) public view returns(uint256) {... */\n      swap2\n      swap1\n      pop\n      jump\t// out\n        /* \"contracts/TokenVesting.sol\":2321:2391  function start() public view returns(uint256) {... */\n    tag_47:\n        /* \"contracts/TokenVesting.sol\":2358:2365  uint256 */\n      0x0\n        /* \"contracts/TokenVesting.sol\":2380:2386  _start */\n      sload(0x3)\n        /* \"contracts/TokenVesting.sol\":2373:2386  return _start */\n      swap1\n      pop\n        /* \"contracts/TokenVesting.sol\":2321:2391  function start() public view returns(uint256) {... */\n      swap1\n      jump\t// out\n        /* \"contracts/ownership/Ownable.sol\":747:983  function transferOwnership(address newOwner) public onlyOwner {\r... */\n    tag_50:\n        /* \"contracts/ownership/Ownable.sol\":425:434  isOwner() */\n      tag_89\n        /* \"contracts/ownership/Ownable.sol\":425:432  isOwner */\n      tag_41\n        /* \"contracts/ownership/Ownable.sol\":425:434  isOwner() */\n      jump\t// in\n    tag_89:\n        /* \"contracts/ownership/Ownable.sol\":417:471  require(isOwner(), \"Ownable: caller is not the owner\") */\n      iszero\n      iszero\n      tag_90\n      jumpi\n      mload(0x40)\n      0x8c379a000000000000000000000000000000000000000000000000000000000\n      dup2\n      mstore\n      0x4\n      add\n      dup1\n      dup1\n      0x20\n      add\n      dup3\n      dup2\n      sub\n      dup3\n      mstore\n      0x20\n      dup2\n      mstore\n      0x20\n      add\n      dup1\n      0x4f776e61626c653a2063616c6c6572206973206e6f7420746865206f776e6572\n      dup2\n      mstore\n      pop\n      0x20\n      add\n      swap2\n      pop\n      pop\n      mload(0x40)\n      dup1\n      swap2\n      sub\n      swap1\n      revert\n    tag_90:\n        /* \"contracts/ownership/Ownable.sol\":848:849  0 */\n      0x0\n        /* \"contracts/ownership/Ownable.sol\":828:850  newOwner != address(0) */\n      0xffffffffffffffffffffffffffffffffffffffff\n      and\n        /* \"contracts/ownership/Ownable.sol\":828:836  newOwner */\n      dup2\n        /* \"contracts/ownership/Ownable.sol\":828:850  newOwner != address(0) */\n      0xffffffffffffffffffffffffffffffffffffffff\n      and\n      eq\n      iszero\n        /* \"contracts/ownership/Ownable.sol\":820:893  require(newOwner != address(0), \"Ownable: new owner is the zero address\") */\n      iszero\n      iszero\n      tag_92\n      jumpi\n      mload(0x40)\n      0x8c379a000000000000000000000000000000000000000000000000000000000\n      dup2\n      mstore\n      0x4\n      add\n      dup1\n      dup1\n      0x20\n      add\n      dup3\n      dup2\n      sub\n      dup3\n      mstore\n      0x26\n      dup2\n      mstore\n      0x20\n      add\n      dup1\n      0x4f776e61626c653a206e6577206f776e657220697320746865207a65726f2061\n      dup2\n      mstore\n      0x20\n      add\n      0x6464726573730000000000000000000000000000000000000000000000000000\n      dup2\n      mstore\n      pop\n      0x40\n      add\n      swap2\n      pop\n      pop\n      mload(0x40)\n      dup1\n      swap2\n      sub\n      swap1\n      revert\n    tag_92:\n        /* \"contracts/ownership/Ownable.sol\":938:946  newOwner */\n      dup1\n        /* \"contracts/ownership/Ownable.sol\":909:947  OwnershipTransferred(_owner, newOwner) */\n      0xffffffffffffffffffffffffffffffffffffffff\n      and\n        /* \"contracts/ownership/Ownable.sol\":930:936  _owner */\n      0x0\n      dup1\n      swap1\n      sload\n      swap1\n      0x100\n      exp\n      swap1\n      div\n      0xffffffffffffffffffffffffffffffffffffffff\n      and\n        /* \"contracts/ownership/Ownable.sol\":909:947  OwnershipTransferred(_owner, newOwner) */\n      0xffffffffffffffffffffffffffffffffffffffff\n      and\n      0x8be0079c531659141344cd1fd0a4f28419497f9722a3daafe3b4186f6b6457e0\n      mload(0x40)\n      mload(0x40)\n      dup1\n      swap2\n      sub\n      swap1\n      log3\n        /* \"contracts/ownership/Ownable.sol\":967:975  newOwner */\n      dup1\n        /* \"contracts/ownership/Ownable.sol\":958:964  _owner */\n      0x0\n      dup1\n        /* \"contracts/ownership/Ownable.sol\":958:975  _owner = newOwner */\n      0x100\n      exp\n      dup2\n      sload\n      dup2\n      0xffffffffffffffffffffffffffffffffffffffff\n      mul\n      not\n      and\n      swap1\n      dup4\n      0xffffffffffffffffffffffffffffffffffffffff\n      and\n      mul\n      or\n      swap1\n      sstore\n      pop\n        /* \"contracts/ownership/Ownable.sol\":747:983  function transferOwnership(address newOwner) public onlyOwner {\r... */\n      pop\n      jump\t// out\n        /* \"contracts/TokenVesting.sol\":2887:2978  function revoked(address token) public view returns(bool) {... */\n    tag_53:\n        /* \"contracts/TokenVesting.sol\":2939:2943  bool */\n      0x0\n        /* \"contracts/TokenVesting.sol\":2958:2966  _revoked */\n      0x7\n        /* \"contracts/TokenVesting.sol\":2958:2973  _revoked[token] */\n      0x0\n        /* \"contracts/TokenVesting.sol\":2967:2972  token */\n      dup4\n        /* \"contracts/TokenVesting.sol\":2958:2973  _revoked[token] */\n      0xffffffffffffffffffffffffffffffffffffffff\n      and\n      0xffffffffffffffffffffffffffffffffffffffff\n      and\n      dup2\n      mstore\n      0x20\n      add\n      swap1\n      dup2\n      mstore\n      0x20\n      add\n      0x0\n      keccak256\n      0x0\n      swap1\n      sload\n      swap1\n      0x100\n      exp\n      swap1\n      div\n      0xff\n      and\n        /* \"contracts/TokenVesting.sol\":2951:2973  return _revoked[token] */\n      swap1\n      pop\n        /* \"contracts/TokenVesting.sol\":2887:2978  function revoked(address token) public view returns(bool) {... */\n      swap2\n      swap1\n      pop\n      jump\t// out\n        /* \"contracts/TokenVesting.sol\":4109:4241  function _releasableAmount(IERC20 token) private view returns (uint256) {... */\n    tag_58:\n        /* \"contracts/TokenVesting.sol\":4172:4179  uint256 */\n      0x0\n        /* \"contracts/TokenVesting.sol\":4194:4236  _vestedAmount(token).sub(_released[token]) */\n      tag_95\n        /* \"contracts/TokenVesting.sol\":4219:4228  _released */\n      0x6\n        /* \"contracts/TokenVesting.sol\":4219:4235  _released[token] */\n      0x0\n        /* \"contracts/TokenVesting.sol\":4229:4234  token */\n      dup5\n        /* \"contracts/TokenVesting.sol\":4219:4235  _released[token] */\n      0xffffffffffffffffffffffffffffffffffffffff\n      and\n      0xffffffffffffffffffffffffffffffffffffffff\n      and\n      dup2\n      mstore\n      0x20\n      add\n      swap1\n      dup2\n      mstore\n      0x20\n      add\n      0x0\n      keccak256\n      sload\n        /* \"contracts/TokenVesting.sol\":4194:4214  _vestedAmount(token) */\n      tag_96\n        /* \"contracts/TokenVesting.sol\":4208:4213  token */\n      dup5\n        /* \"contracts/TokenVesting.sol\":4194:4207  _vestedAmount */\n      tag_97\n        /* \"contracts/TokenVesting.sol\":4194:4214  _vestedAmount(token) */\n      jump\t// in\n    tag_96:\n        /* \"contracts/TokenVesting.sol\":4194:4218  _vestedAmount(token).sub */\n      tag_80\n      swap1\n        /* \"contracts/TokenVesting.sol\":4194:4236  _vestedAmount(token).sub(_released[token]) */\n      swap2\n      swap1\n      0xffffffff\n      and\n      jump\t// in\n    tag_95:\n        /* \"contracts/TokenVesting.sol\":4187:4236  return _vestedAmount(token).sub(_released[token]) */\n      swap1\n      pop\n        /* \"contracts/TokenVesting.sol\":4109:4241  function _releasableAmount(IERC20 token) private view returns (uint256) {... */\n      swap2\n      swap1\n      pop\n      jump\t// out\n        /* \"contracts/math/SafeMath.sol\":631:810  function add(uint256 a, uint256 b) internal pure returns (uint256) {\r... */\n    tag_61:\n        /* \"contracts/math/SafeMath.sol\":689:696  uint256 */\n      0x0\n        /* \"contracts/math/SafeMath.sol\":709:718  uint256 c */\n      dup1\n        /* \"contracts/math/SafeMath.sol\":725:726  b */\n      dup3\n        /* \"contracts/math/SafeMath.sol\":721:722  a */\n      dup5\n        /* \"contracts/math/SafeMath.sol\":721:726  a + b */\n      add\n        /* \"contracts/math/SafeMath.sol\":709:726  uint256 c = a + b */\n      swap1\n      pop\n        /* \"contracts/math/SafeMath.sol\":750:751  a */\n      dup4\n        /* \"contracts/math/SafeMath.sol\":745:746  c */\n      dup2\n        /* \"contracts/math/SafeMath.sol\":745:751  c >= a */\n      lt\n      iszero\n        /* \"contracts/math/SafeMath.sol\":737:783  require(c >= a, \"SafeMath: addition overflow\") */\n      iszero\n      iszero\n      tag_99\n      jumpi\n      mload(0x40)\n      0x8c379a000000000000000000000000000000000000000000000000000000000\n      dup2\n      mstore\n      0x4\n      add\n      dup1\n      dup1\n      0x20\n      add\n      dup3\n      dup2\n      sub\n      dup3\n      mstore\n      0x1b\n      dup2\n      mstore\n      0x20\n      add\n      dup1\n      0x536166654d6174683a206164646974696f6e206f766572666c6f770000000000\n      dup2\n      mstore\n      pop\n      0x20\n      add\n      swap2\n      pop\n      pop\n      mload(0x40)\n      dup1\n      swap2\n      sub\n      swap1\n      revert\n    tag_99:\n        /* \"contracts/math/SafeMath.sol\":801:802  c */\n      dup1\n        /* \"contracts/math/SafeMath.sol\":794:802  return c */\n      swap2\n      pop\n        /* \"contracts/math/SafeMath.sol\":631:810  function add(uint256 a, uint256 b) internal pure returns (uint256) {\r... */\n      pop\n      swap3\n      swap2\n      pop\n      pop\n      jump\t// out\n        /* \"contracts/token/SafeERC20.sol\":146:301  function safeTransfer(IERC20 token, address to, uint256 value) internal {\r... */\n    tag_63:\n        /* \"contracts/token/SafeERC20.sol\":237:242  token */\n      dup3\n        /* \"contracts/token/SafeERC20.sol\":237:251  token.transfer */\n      0xffffffffffffffffffffffffffffffffffffffff\n      and\n      0xa9059cbb\n        /* \"contracts/token/SafeERC20.sol\":252:254  to */\n      dup4\n        /* \"contracts/token/SafeERC20.sol\":256:261  value */\n      dup4\n        /* \"contracts/token/SafeERC20.sol\":237:262  token.transfer(to, value) */\n      mload(0x40)\n      dup4\n      0xffffffff\n      and\n      0x100000000000000000000000000000000000000000000000000000000\n      mul\n      dup2\n      mstore\n      0x4\n      add\n      dup1\n      dup4\n      0xffffffffffffffffffffffffffffffffffffffff\n      and\n      0xffffffffffffffffffffffffffffffffffffffff\n      and\n      dup2\n      mstore\n      0x20\n      add\n      dup3\n      dup2\n      mstore\n      0x20\n      add\n      swap3\n      pop\n      pop\n      pop\n      0x20\n      mload(0x40)\n      dup1\n      dup4\n      sub\n      dup2\n      0x0\n      dup8\n      dup1\n      extcodesize\n      iszero\n        /* \"--CODEGEN--\":8:17   */\n      dup1\n        /* \"--CODEGEN--\":5:7   */\n      iszero\n      tag_101\n      jumpi\n        /* \"--CODEGEN--\":30:31   */\n      0x0\n        /* \"--CODEGEN--\":27:28   */\n      dup1\n        /* \"--CODEGEN--\":20:32   */\n      revert\n        /* \"--CODEGEN--\":5:7   */\n    tag_101:\n        /* \"contracts/token/SafeERC20.sol\":237:262  token.transfer(to, value) */\n      pop\n      gas\n      call\n      iszero\n        /* \"--CODEGEN--\":8:17   */\n      dup1\n        /* \"--CODEGEN--\":5:7   */\n      iszero\n      tag_102\n      jumpi\n        /* \"--CODEGEN--\":45:61   */\n      returndatasize\n        /* \"--CODEGEN--\":42:43   */\n      0x0\n        /* \"--CODEGEN--\":39:40   */\n      dup1\n        /* \"--CODEGEN--\":24:62   */\n      returndatacopy\n        /* \"--CODEGEN--\":77:93   */\n      returndatasize\n        /* \"--CODEGEN--\":74:75   */\n      0x0\n        /* \"--CODEGEN--\":67:94   */\n      revert\n        /* \"--CODEGEN--\":5:7   */\n    tag_102:\n        /* \"contracts/token/SafeERC20.sol\":237:262  token.transfer(to, value) */\n      pop\n      pop\n      pop\n      pop\n      mload(0x40)\n      returndatasize\n        /* \"--CODEGEN--\":13:15   */\n      0x20\n        /* \"--CODEGEN--\":8:11   */\n      dup2\n        /* \"--CODEGEN--\":5:16   */\n      lt\n        /* \"--CODEGEN--\":2:4   */\n      iszero\n      tag_103\n      jumpi\n        /* \"--CODEGEN--\":29:30   */\n      0x0\n        /* \"--CODEGEN--\":26:27   */\n      dup1\n        /* \"--CODEGEN--\":19:31   */\n      revert\n        /* \"--CODEGEN--\":2:4   */\n    tag_103:\n        /* \"contracts/token/SafeERC20.sol\":237:262  token.transfer(to, value) */\n      dup2\n      add\n      swap1\n      dup1\n      dup1\n      mload\n      swap1\n      0x20\n      add\n      swap1\n      swap3\n      swap2\n      swap1\n      pop\n      pop\n      pop\n        /* \"contracts/token/SafeERC20.sol\":229:293  require(token.transfer(to, value), \"SafeERC20: transfer failed\") */\n      iszero\n      iszero\n      tag_104\n      jumpi\n      mload(0x40)\n      0x8c379a000000000000000000000000000000000000000000000000000000000\n      dup2\n      mstore\n      0x4\n      add\n      dup1\n      dup1\n      0x20\n      add\n      dup3\n      dup2\n      sub\n      dup3\n      mstore\n      0x1a\n      dup2\n      mstore\n      0x20\n      add\n      dup1\n      0x5361666545524332303a207472616e73666572206661696c6564000000000000\n      dup2\n      mstore\n      pop\n      0x20\n      add\n      swap2\n      pop\n      pop\n      mload(0x40)\n      dup1\n      swap2\n      sub\n      swap1\n      revert\n    tag_104:\n        /* \"contracts/token/SafeERC20.sol\":146:301  function safeTransfer(IERC20 token, address to, uint256 value) internal {\r... */\n      pop\n      pop\n      pop\n      jump\t// out\n        /* \"contracts/math/SafeMath.sol\":465:623  function sub(uint256 a, uint256 b) internal pure returns (uint256) {\r... */\n    tag_80:\n        /* \"contracts/math/SafeMath.sol\":523:530  uint256 */\n      0x0\n        /* \"contracts/math/SafeMath.sol\":556:557  a */\n      dup3\n        /* \"contracts/math/SafeMath.sol\":551:552  b */\n      dup3\n        /* \"contracts/math/SafeMath.sol\":551:557  b <= a */\n      gt\n      iszero\n        /* \"contracts/math/SafeMath.sol\":543:592  require(b <= a, \"SafeMath: subtraction overflow\") */\n      iszero\n      iszero\n      tag_106\n      jumpi\n      mload(0x40)\n      0x8c379a000000000000000000000000000000000000000000000000000000000\n      dup2\n      mstore\n      0x4\n      add\n      dup1\n      dup1\n      0x20\n      add\n      dup3\n      dup2\n      sub\n      dup3\n      mstore\n      0x1e\n      dup2\n      mstore\n      0x20\n      add\n      dup1\n      0x536166654d6174683a207375627472616374696f6e206f766572666c6f770000\n      dup2\n      mstore\n      pop\n      0x20\n      add\n      swap2\n      pop\n      pop\n      mload(0x40)\n      dup1\n      swap2\n      sub\n      swap1\n      revert\n    tag_106:\n        /* \"contracts/math/SafeMath.sol\":614:615  b */\n      dup2\n        /* \"contracts/math/SafeMath.sol\":610:611  a */\n      dup4\n        /* \"contracts/math/SafeMath.sol\":610:615  a - b */\n      sub\n        /* \"contracts/math/SafeMath.sol\":603:615  return a - b */\n      swap1\n      pop\n        /* \"contracts/math/SafeMath.sol\":465:623  function sub(uint256 a, uint256 b) internal pure returns (uint256) {\r... */\n      swap3\n      swap2\n      pop\n      pop\n      jump\t// out\n        /* \"contracts/TokenVesting.sol\":4366:4808  function _vestedAmount(IERC20 token) private view returns (uint256) {... */\n    tag_97:\n        /* \"contracts/TokenVesting.sol\":4425:4432  uint256 */\n      0x0\n        /* \"contracts/TokenVesting.sol\":4440:4462  uint256 currentBalance */\n      dup1\n        /* \"contracts/TokenVesting.sol\":4492:4512  uint256 totalBalance */\n      0x0\n        /* \"contracts/TokenVesting.sol\":4465:4470  token */\n      dup4\n        /* \"contracts/TokenVesting.sol\":4465:4480  token.balanceOf */\n      0xffffffffffffffffffffffffffffffffffffffff\n      and\n      0x70a08231\n        /* \"contracts/TokenVesting.sol\":4481:4485  this */\n      address\n        /* \"contracts/TokenVesting.sol\":4465:4486  token.balanceOf(this) */\n      mload(0x40)\n      dup3\n      0xffffffff\n      and\n      0x100000000000000000000000000000000000000000000000000000000\n      mul\n      dup2\n      mstore\n      0x4\n      add\n      dup1\n      dup3\n      0xffffffffffffffffffffffffffffffffffffffff\n      and\n      0xffffffffffffffffffffffffffffffffffffffff\n      and\n      dup2\n      mstore\n      0x20\n      add\n      swap2\n      pop\n      pop\n      0x20\n      mload(0x40)\n      dup1\n      dup4\n      sub\n      dup2\n      0x0\n      dup8\n      dup1\n      extcodesize\n      iszero\n        /* \"--CODEGEN--\":8:17   */\n      dup1\n        /* \"--CODEGEN--\":5:7   */\n      iszero\n      tag_108\n      jumpi\n        /* \"--CODEGEN--\":30:31   */\n      0x0\n        /* \"--CODEGEN--\":27:28   */\n      dup1\n        /* \"--CODEGEN--\":20:32   */\n      revert\n        /* \"--CODEGEN--\":5:7   */\n    tag_108:\n        /* \"contracts/TokenVesting.sol\":4465:4486  token.balanceOf(this) */\n      pop\n      gas\n      call\n      iszero\n        /* \"--CODEGEN--\":8:17   */\n      dup1\n        /* \"--CODEGEN--\":5:7   */\n      iszero\n      tag_109\n      jumpi\n        /* \"--CODEGEN--\":45:61   */\n      returndatasize\n        /* \"--CODEGEN--\":42:43   */\n      0x0\n        /* \"--CODEGEN--\":39:40   */\n      dup1\n        /* \"--CODEGEN--\":24:62   */\n      returndatacopy\n        /* \"--CODEGEN--\":77:93   */\n      returndatasize\n        /* \"--CODEGEN--\":74:75   */\n      0x0\n        /* \"--CODEGEN--\":67:94   */\n      revert\n        /* \"--CODEGEN--\":5:7   */\n    tag_109:\n        /* \"contracts/TokenVesting.sol\":4465:4486  token.balanceOf(this) */\n      pop\n      pop\n      pop\n      pop\n      mload(0x40)\n      returndatasize\n        /* \"--CODEGEN--\":13:15   */\n      0x20\n        /* \"--CODEGEN--\":8:11   */\n      dup2\n        /* \"--CODEGEN--\":5:16   */\n      lt\n        /* \"--CODEGEN--\":2:4   */\n      iszero\n      tag_110\n      jumpi\n        /* \"--CODEGEN--\":29:30   */\n      0x0\n        /* \"--CODEGEN--\":26:27   */\n      dup1\n        /* \"--CODEGEN--\":19:31   */\n      revert\n        /* \"--CODEGEN--\":2:4   */\n    tag_110:\n        /* \"contracts/TokenVesting.sol\":4465:4486  token.balanceOf(this) */\n      dup2\n      add\n      swap1\n      dup1\n      dup1\n      mload\n      swap1\n      0x20\n      add\n      swap1\n      swap3\n      swap2\n      swap1\n      pop\n      pop\n      pop\n        /* \"contracts/TokenVesting.sol\":4440:4486  uint256 currentBalance = token.balanceOf(this) */\n      swap2\n      pop\n        /* \"contracts/TokenVesting.sol\":4515:4551  currentBalance.add(_released[token]) */\n      tag_111\n        /* \"contracts/TokenVesting.sol\":4534:4543  _released */\n      0x6\n        /* \"contracts/TokenVesting.sol\":4534:4550  _released[token] */\n      0x0\n        /* \"contracts/TokenVesting.sol\":4544:4549  token */\n      dup7\n        /* \"contracts/TokenVesting.sol\":4534:4550  _released[token] */\n      0xffffffffffffffffffffffffffffffffffffffff\n      and\n      0xffffffffffffffffffffffffffffffffffffffff\n      and\n      dup2\n      mstore\n      0x20\n      add\n      swap1\n      dup2\n      mstore\n      0x20\n      add\n      0x0\n      keccak256\n      sload\n        /* \"contracts/TokenVesting.sol\":4515:4529  currentBalance */\n      dup4\n        /* \"contracts/TokenVesting.sol\":4515:4533  currentBalance.add */\n      tag_61\n      swap1\n        /* \"contracts/TokenVesting.sol\":4515:4551  currentBalance.add(_released[token]) */\n      swap2\n      swap1\n      0xffffffff\n      and\n      jump\t// in\n    tag_111:\n        /* \"contracts/TokenVesting.sol\":4492:4551  uint256 totalBalance = currentBalance.add(_released[token]) */\n      swap1\n      pop\n        /* \"contracts/TokenVesting.sol\":4580:4586  _cliff */\n      sload(0x2)\n        /* \"contracts/TokenVesting.sol\":4562:4577  block.timestamp */\n      timestamp\n        /* \"contracts/TokenVesting.sol\":4562:4586  block.timestamp < _cliff */\n      lt\n        /* \"contracts/TokenVesting.sol\":4558:4804  if (block.timestamp < _cliff) {... */\n      iszero\n      tag_112\n      jumpi\n        /* \"contracts/TokenVesting.sol\":4603:4604  0 */\n      0x0\n        /* \"contracts/TokenVesting.sol\":4596:4604  return 0 */\n      swap3\n      pop\n      jump(tag_107)\n        /* \"contracts/TokenVesting.sol\":4558:4804  if (block.timestamp < _cliff) {... */\n    tag_112:\n        /* \"contracts/TokenVesting.sol\":4640:4661  _start.add(_duration) */\n      tag_114\n        /* \"contracts/TokenVesting.sol\":4651:4660  _duration */\n      sload(0x4)\n        /* \"contracts/TokenVesting.sol\":4640:4646  _start */\n      sload(0x3)\n        /* \"contracts/TokenVesting.sol\":4640:4650  _start.add */\n      tag_61\n      swap1\n        /* \"contracts/TokenVesting.sol\":4640:4661  _start.add(_duration) */\n      swap2\n      swap1\n      0xffffffff\n      and\n      jump\t// in\n    tag_114:\n        /* \"contracts/TokenVesting.sol\":4621:4636  block.timestamp */\n      timestamp\n        /* \"contracts/TokenVesting.sol\":4621:4661  block.timestamp >= _start.add(_duration) */\n      lt\n      iszero\n        /* \"contracts/TokenVesting.sol\":4621:4680  block.timestamp >= _start.add(_duration) || _revoked[token] */\n      dup1\n      tag_115\n      jumpi\n      pop\n        /* \"contracts/TokenVesting.sol\":4665:4673  _revoked */\n      0x7\n        /* \"contracts/TokenVesting.sol\":4665:4680  _revoked[token] */\n      0x0\n        /* \"contracts/TokenVesting.sol\":4674:4679  token */\n      dup6\n        /* \"contracts/TokenVesting.sol\":4665:4680  _revoked[token] */\n      0xffffffffffffffffffffffffffffffffffffffff\n      and\n      0xffffffffffffffffffffffffffffffffffffffff\n      and\n      dup2\n      mstore\n      0x20\n      add\n      swap1\n      dup2\n      mstore\n      0x20\n      add\n      0x0\n      keccak256\n      0x0\n      swap1\n      sload\n      swap1\n      0x100\n      exp\n      swap1\n      div\n      0xff\n      and\n        /* \"contracts/TokenVesting.sol\":4621:4680  block.timestamp >= _start.add(_duration) || _revoked[token] */\n    tag_115:\n        /* \"contracts/TokenVesting.sol\":4617:4804  if (block.timestamp >= _start.add(_duration) || _revoked[token]) {... */\n      iszero\n      tag_116\n      jumpi\n        /* \"contracts/TokenVesting.sol\":4697:4709  totalBalance */\n      dup1\n        /* \"contracts/TokenVesting.sol\":4690:4709  return totalBalance */\n      swap3\n      pop\n      jump(tag_107)\n        /* \"contracts/TokenVesting.sol\":4617:4804  if (block.timestamp >= _start.add(_duration) || _revoked[token]) {... */\n    tag_116:\n        /* \"contracts/TokenVesting.sol\":4737:4797  totalBalance.mul(block.timestamp.sub(_start)).div(_duration) */\n      tag_118\n        /* \"contracts/TokenVesting.sol\":4787:4796  _duration */\n      sload(0x4)\n        /* \"contracts/TokenVesting.sol\":4737:4782  totalBalance.mul(block.timestamp.sub(_start)) */\n      tag_119\n        /* \"contracts/TokenVesting.sol\":4754:4781  block.timestamp.sub(_start) */\n      tag_120\n        /* \"contracts/TokenVesting.sol\":4774:4780  _start */\n      sload(0x3)\n        /* \"contracts/TokenVesting.sol\":4754:4769  block.timestamp */\n      timestamp\n        /* \"contracts/TokenVesting.sol\":4754:4773  block.timestamp.sub */\n      tag_80\n      swap1\n        /* \"contracts/TokenVesting.sol\":4754:4781  block.timestamp.sub(_start) */\n      swap2\n      swap1\n      0xffffffff\n      and\n      jump\t// in\n    tag_120:\n        /* \"contracts/TokenVesting.sol\":4737:4749  totalBalance */\n      dup5\n        /* \"contracts/TokenVesting.sol\":4737:4753  totalBalance.mul */\n      tag_121\n      swap1\n        /* \"contracts/TokenVesting.sol\":4737:4782  totalBalance.mul(block.timestamp.sub(_start)) */\n      swap2\n      swap1\n      0xffffffff\n      and\n      jump\t// in\n    tag_119:\n        /* \"contracts/TokenVesting.sol\":4737:4786  totalBalance.mul(block.timestamp.sub(_start)).div */\n      tag_122\n      swap1\n        /* \"contracts/TokenVesting.sol\":4737:4797  totalBalance.mul(block.timestamp.sub(_start)).div(_duration) */\n      swap2\n      swap1\n      0xffffffff\n      and\n      jump\t// in\n    tag_118:\n        /* \"contracts/TokenVesting.sol\":4730:4797  return totalBalance.mul(block.timestamp.sub(_start)).div(_duration) */\n      swap3\n      pop\n        /* \"contracts/TokenVesting.sol\":4366:4808  function _vestedAmount(IERC20 token) private view returns (uint256) {... */\n    tag_107:\n      pop\n      pop\n      swap2\n      swap1\n      pop\n      jump\t// out\n        /* \"contracts/math/SafeMath.sol\":52:272  function mul(uint256 a, uint256 b) internal pure returns (uint256) {\r... */\n    tag_121:\n        /* \"contracts/math/SafeMath.sol\":110:117  uint256 */\n      0x0\n        /* \"contracts/math/SafeMath.sol\":161:170  uint256 c */\n      dup1\n        /* \"contracts/math/SafeMath.sol\":139:140  0 */\n      0x0\n        /* \"contracts/math/SafeMath.sol\":134:135  a */\n      dup5\n        /* \"contracts/math/SafeMath.sol\":134:140  a == 0 */\n      eq\n        /* \"contracts/math/SafeMath.sol\":130:150  if (a == 0) return 0 */\n      iszero\n      tag_124\n      jumpi\n        /* \"contracts/math/SafeMath.sol\":149:150  0 */\n      0x0\n        /* \"contracts/math/SafeMath.sol\":142:150  return 0 */\n      swap2\n      pop\n      jump(tag_123)\n        /* \"contracts/math/SafeMath.sol\":130:150  if (a == 0) return 0 */\n    tag_124:\n        /* \"contracts/math/SafeMath.sol\":177:178  b */\n      dup3\n        /* \"contracts/math/SafeMath.sol\":173:174  a */\n      dup5\n        /* \"contracts/math/SafeMath.sol\":173:178  a * b */\n      mul\n        /* \"contracts/math/SafeMath.sol\":161:178  uint256 c = a * b */\n      swap1\n      pop\n        /* \"contracts/math/SafeMath.sol\":206:207  b */\n      dup3\n        /* \"contracts/math/SafeMath.sol\":201:202  a */\n      dup5\n        /* \"contracts/math/SafeMath.sol\":197:198  c */\n      dup3\n        /* \"contracts/math/SafeMath.sol\":197:202  c / a */\n      dup2\n      iszero\n      iszero\n      tag_125\n      jumpi\n      invalid\n    tag_125:\n      div\n        /* \"contracts/math/SafeMath.sol\":197:207  c / a == b */\n      eq\n        /* \"contracts/math/SafeMath.sol\":189:245  require(c / a == b, \"SafeMath: multiplication overflow\") */\n      iszero\n      iszero\n      tag_126\n      jumpi\n      mload(0x40)\n      0x8c379a000000000000000000000000000000000000000000000000000000000\n      dup2\n      mstore\n      0x4\n      add\n      dup1\n      dup1\n      0x20\n      add\n      dup3\n      dup2\n      sub\n      dup3\n      mstore\n      0x21\n      dup2\n      mstore\n      0x20\n      add\n      dup1\n      0x536166654d6174683a206d756c7469706c69636174696f6e206f766572666c6f\n      dup2\n      mstore\n      0x20\n      add\n      0x7700000000000000000000000000000000000000000000000000000000000000\n      dup2\n      mstore\n      pop\n      0x40\n      add\n      swap2\n      pop\n      pop\n      mload(0x40)\n      dup1\n      swap2\n      sub\n      swap1\n      revert\n    tag_126:\n        /* \"contracts/math/SafeMath.sol\":263:264  c */\n      dup1\n        /* \"contracts/math/SafeMath.sol\":256:264  return c */\n      swap2\n      pop\n        /* \"contracts/math/SafeMath.sol\":52:272  function mul(uint256 a, uint256 b) internal pure returns (uint256) {\r... */\n    tag_123:\n      pop\n      swap3\n      swap2\n      pop\n      pop\n      jump\t// out\n        /* \"contracts/math/SafeMath.sol\":280:457  function div(uint256 a, uint256 b) internal pure returns (uint256) {\r... */\n    tag_122:\n        /* \"contracts/math/SafeMath.sol\":338:345  uint256 */\n      0x0\n        /* \"contracts/math/SafeMath.sol\":413:422  uint256 c */\n      dup1\n        /* \"contracts/math/SafeMath.sol\":370:371  0 */\n      0x0\n        /* \"contracts/math/SafeMath.sol\":366:367  b */\n      dup4\n        /* \"contracts/math/SafeMath.sol\":366:371  b > 0 */\n      gt\n        /* \"contracts/math/SafeMath.sol\":358:402  require(b > 0, \"SafeMath: division by zero\") */\n      iszero\n      iszero\n      tag_128\n      jumpi\n      mload(0x40)\n      0x8c379a000000000000000000000000000000000000000000000000000000000\n      dup2\n      mstore\n      0x4\n      add\n      dup1\n      dup1\n      0x20\n      add\n      dup3\n      dup2\n      sub\n      dup3\n      mstore\n      0x1a\n      dup2\n      mstore\n      0x20\n      add\n      dup1\n      0x536166654d6174683a206469766973696f6e206279207a65726f000000000000\n      dup2\n      mstore\n      pop\n      0x20\n      add\n      swap2\n      pop\n      pop\n      mload(0x40)\n      dup1\n      swap2\n      sub\n      swap1\n      revert\n    tag_128:\n        /* \"contracts/math/SafeMath.sol\":429:430  b */\n      dup3\n        /* \"contracts/math/SafeMath.sol\":425:426  a */\n      dup5\n        /* \"contracts/math/SafeMath.sol\":425:430  a / b */\n      dup2\n      iszero\n      iszero\n      tag_129\n      jumpi\n      invalid\n    tag_129:\n      div\n        /* \"contracts/math/SafeMath.sol\":413:430  uint256 c = a / b */\n      swap1\n      pop\n        /* \"contracts/math/SafeMath.sol\":448:449  c */\n      dup1\n        /* \"contracts/math/SafeMath.sol\":441:449  return c */\n      swap2\n      pop\n        /* \"contracts/math/SafeMath.sol\":280:457  function div(uint256 a, uint256 b) internal pure returns (uint256) {\r... */\n      pop\n      swap3\n      swap2\n      pop\n      pop\n      jump\t// out\n\n    auxdata: 0xa165627a7a7230582051c1d26ddff4119059aa0f1c706c42deadc9740398b521f81bb374f5d40b2e430029\n}\n",
				"bytecode": {
					"linkReferences": {},
					"object": "60806040523480156200001157600080fd5b5060405160a0806200162c8339810180604052810190808051906020019092919080519060200190929190805190602001909291908051906020019092919080519060200190929190505050336000806101000a81548173ffffffffffffffffffffffffffffffffffffffff021916908373ffffffffffffffffffffffffffffffffffffffff1602179055506000809054906101000a900473ffffffffffffffffffffffffffffffffffffffff1673ffffffffffffffffffffffffffffffffffffffff16600073ffffffffffffffffffffffffffffffffffffffff167f8be0079c531659141344cd1fd0a4f28419497f9722a3daafe3b4186f6b6457e060405160405180910390a3600073ffffffffffffffffffffffffffffffffffffffff168573ffffffffffffffffffffffffffffffffffffffff16141515156200015657600080fd5b8183111515156200016657600080fd5b6000821115156200017657600080fd5b426200019a8386620002446401000000000262000d57179091906401000000009004565b111515620001a757600080fd5b84600160006101000a81548173ffffffffffffffffffffffffffffffffffffffff021916908373ffffffffffffffffffffffffffffffffffffffff16021790555080600560006101000a81548160ff021916908315150217905550816004819055506200022c8385620002446401000000000262000d57179091906401000000009004565b600281905550836003819055505050505050620002cf565b6000808284019050838110151515620002c5576040517f08c379a000000000000000000000000000000000000000000000000000000000815260040180806020018281038252601b8152602001807f536166654d6174683a206164646974696f6e206f766572666c6f77000000000081525060200191505060405180910390fd5b8091505092915050565b61134d80620002df6000396000f3006080604052600436106100c5576000357c0100000000000000000000000000000000000000000000000000000000900463ffffffff1680630fb5a6b4146100ca57806313d033c0146100f5578063191655871461012057806338af3eed14610163578063715018a6146101ba57806374a8f103146101d1578063872a7810146102145780638da5cb5b146102435780638f32d59b1461029a5780639852595c146102c9578063be9a655514610320578063f2fde38b1461034b578063fa01dc061461038e575b600080fd5b3480156100d657600080fd5b506100df6103e9565b6040518082815260200191505060405180910390f35b34801561010157600080fd5b5061010a6103f3565b6040518082815260200191505060405180910390f35b34801561012c57600080fd5b50610161600480360381019080803573ffffffffffffffffffffffffffffffffffffffff1690602001909291905050506103fd565b005b34801561016f57600080fd5b5061017861056a565b604051808273ffffffffffffffffffffffffffffffffffffffff1673ffffffffffffffffffffffffffffffffffffffff16815260200191505060405180910390f35b3480156101c657600080fd5b506101cf610594565b005b3480156101dd57600080fd5b50610212600480360381019080803573ffffffffffffffffffffffffffffffffffffffff1690602001909291905050506106cf565b005b34801561022057600080fd5b506102296109af565b604051808215151515815260200191505060405180910390f35b34801561024f57600080fd5b506102586109c6565b604051808273ffffffffffffffffffffffffffffffffffffffff1673ffffffffffffffffffffffffffffffffffffffff16815260200191505060405180910390f35b3480156102a657600080fd5b506102af6109ef565b604051808215151515815260200191505060405180910390f35b3480156102d557600080fd5b5061030a600480360381019080803573ffffffffffffffffffffffffffffffffffffffff169060200190929190505050610a46565b6040518082815260200191505060405180910390f35b34801561032c57600080fd5b50610335610a8f565b6040518082815260200191505060405180910390f35b34801561035757600080fd5b5061038c600480360381019080803573ffffffffffffffffffffffffffffffffffffffff169060200190929190505050610a99565b005b34801561039a57600080fd5b506103cf600480360381019080803573ffffffffffffffffffffffffffffffffffffffff169060200190929190505050610c9e565b604051808215151515815260200191505060405180910390f35b6000600454905090565b6000600254905090565b600061040882610cf4565b905060008111151561041957600080fd5b61046b81600660008573ffffffffffffffffffffffffffffffffffffffff1673ffffffffffffffffffffffffffffffffffffffff16815260200190815260200160002054610d5790919063ffffffff16565b600660008473ffffffffffffffffffffffffffffffffffffffff1673ffffffffffffffffffffffffffffffffffffffff168152602001908152602001600020819055506104fb600160009054906101000a900473ffffffffffffffffffffffffffffffffffffffff16828473ffffffffffffffffffffffffffffffffffffffff16610de19092919063ffffffff16565b7fc7798891864187665ac6dd119286e44ec13f014527aeeb2b8eb3fd413df931798282604051808373ffffffffffffffffffffffffffffffffffffffff1673ffffffffffffffffffffffffffffffffffffffff1681526020018281526020019250505060405180910390a15050565b6000600160009054906101000a900473ffffffffffffffffffffffffffffffffffffffff16905090565b61059c6109ef565b1515610610576040517f08c379a00000000000000000000000000000000000000000000000000000000081526004018080602001828103825260208152602001807f4f776e61626c653a2063616c6c6572206973206e6f7420746865206f776e657281525060200191505060405180910390fd5b600073ffffffffffffffffffffffffffffffffffffffff166000809054906101000a900473ffffffffffffffffffffffffffffffffffffffff1673ffffffffffffffffffffffffffffffffffffffff167f8be0079c531659141344cd1fd0a4f28419497f9722a3daafe3b4186f6b6457e060405160405180910390a360008060006101000a81548173ffffffffffffffffffffffffffffffffffffffff021916908373ffffffffffffffffffffffffffffffffffffffff160217905550565b60008060006106dc6109ef565b1515610750576040517f08c379a00000000000000000000000000000000000000000000000000000000081526004018080602001828103825260208152602001807f4f776e61626c653a2063616c6c6572206973206e6f7420746865206f776e657281525060200191505060405180910390fd5b600560009054906101000a900460ff16151561076b57600080fd5b600760008573ffffffffffffffffffffffffffffffffffffffff1673ffffffffffffffffffffffffffffffffffffffff16815260200190815260200160002060009054906101000a900460ff161515156107c457600080fd5b8373ffffffffffffffffffffffffffffffffffffffff166370a08231306040518263ffffffff167c0100000000000000000000000000000000000000000000000000000000028152600401808273ffffffffffffffffffffffffffffffffffffffff1673ffffffffffffffffffffffffffffffffffffffff168152602001915050602060405180830381600087803b15801561085f57600080fd5b505af1158015610873573d6000803e3d6000fd5b505050506040513d602081101561088957600080fd5b810190808051906020019092919050505092506108a584610cf4565b91506108ba8284610f3890919063ffffffff16565b90506001600760008673ffffffffffffffffffffffffffffffffffffffff1673ffffffffffffffffffffffffffffffffffffffff16815260200190815260200160002060006101000a81548160ff02191690831515021790555061094661091f6109c6565b828673ffffffffffffffffffffffffffffffffffffffff16610de19092919063ffffffff16565b7f39983c6d4d174a7aee564f449d4a5c3c7ac9649d72b7793c56901183996f8af684604051808273ffffffffffffffffffffffffffffffffffffffff1673ffffffffffffffffffffffffffffffffffffffff16815260200191505060405180910390a150505050565b6000600560009054906101000a900460ff16905090565b60008060009054906101000a900473ffffffffffffffffffffffffffffffffffffffff16905090565b60008060009054906101000a900473ffffffffffffffffffffffffffffffffffffffff1673ffffffffffffffffffffffffffffffffffffffff163373ffffffffffffffffffffffffffffffffffffffff1614905090565b6000600660008373ffffffffffffffffffffffffffffffffffffffff1673ffffffffffffffffffffffffffffffffffffffff168152602001908152602001600020549050919050565b6000600354905090565b610aa16109ef565b1515610b15576040517f08c379a00000000000000000000000000000000000000000000000000000000081526004018080602001828103825260208152602001807f4f776e61626c653a2063616c6c6572206973206e6f7420746865206f776e657281525060200191505060405180910390fd5b600073ffffffffffffffffffffffffffffffffffffffff168173ffffffffffffffffffffffffffffffffffffffff1614151515610be0576040517f08c379a00000000000000000000000000000000000000000000000000000000081526004018080602001828103825260268152602001807f4f776e61626c653a206e6577206f776e657220697320746865207a65726f206181526020017f646472657373000000000000000000000000000000000000000000000000000081525060400191505060405180910390fd5b8073ffffffffffffffffffffffffffffffffffffffff166000809054906101000a900473ffffffffffffffffffffffffffffffffffffffff1673ffffffffffffffffffffffffffffffffffffffff167f8be0079c531659141344cd1fd0a4f28419497f9722a3daafe3b4186f6b6457e060405160405180910390a3806000806101000a81548173ffffffffffffffffffffffffffffffffffffffff021916908373ffffffffffffffffffffffffffffffffffffffff16021790555050565b6000600760008373ffffffffffffffffffffffffffffffffffffffff1673ffffffffffffffffffffffffffffffffffffffff16815260200190815260200160002060009054906101000a900460ff169050919050565b6000610d50600660008473ffffffffffffffffffffffffffffffffffffffff1673ffffffffffffffffffffffffffffffffffffffff16815260200190815260200160002054610d4284610fbd565b610f3890919063ffffffff16565b9050919050565b6000808284019050838110151515610dd7576040517f08c379a000000000000000000000000000000000000000000000000000000000815260040180806020018281038252601b8152602001807f536166654d6174683a206164646974696f6e206f766572666c6f77000000000081525060200191505060405180910390fd5b8091505092915050565b8273ffffffffffffffffffffffffffffffffffffffff1663a9059cbb83836040518363ffffffff167c0100000000000000000000000000000000000000000000000000000000028152600401808373ffffffffffffffffffffffffffffffffffffffff1673ffffffffffffffffffffffffffffffffffffffff16815260200182815260200192505050602060405180830381600087803b158015610e8457600080fd5b505af1158015610e98573d6000803e3d6000fd5b505050506040513d6020811015610eae57600080fd5b81019080805190602001909291905050501515610f33576040517f08c379a000000000000000000000000000000000000000000000000000000000815260040180806020018281038252601a8152602001807f5361666545524332303a207472616e73666572206661696c656400000000000081525060200191505060405180910390fd5b505050565b6000828211151515610fb2576040517f08c379a000000000000000000000000000000000000000000000000000000000815260040180806020018281038252601e8152602001807f536166654d6174683a207375627472616374696f6e206f766572666c6f77000081525060200191505060405180910390fd5b818303905092915050565b60008060008373ffffffffffffffffffffffffffffffffffffffff166370a08231306040518263ffffffff167c0100000000000000000000000000000000000000000000000000000000028152600401808273ffffffffffffffffffffffffffffffffffffffff1673ffffffffffffffffffffffffffffffffffffffff168152602001915050602060405180830381600087803b15801561105d57600080fd5b505af1158015611071573d6000803e3d6000fd5b505050506040513d602081101561108757600080fd5b810190808051906020019092919050505091506110ec600660008673ffffffffffffffffffffffffffffffffffffffff1673ffffffffffffffffffffffffffffffffffffffff1681526020019081526020016000205483610d5790919063ffffffff16565b905060025442101561110157600092506111ba565b611118600454600354610d5790919063ffffffff16565b4210158061116f5750600760008573ffffffffffffffffffffffffffffffffffffffff1673ffffffffffffffffffffffffffffffffffffffff16815260200190815260200160002060009054906101000a900460ff165b1561117c578092506111ba565b6111b76004546111a961119a60035442610f3890919063ffffffff16565b846111c190919063ffffffff16565b61128e90919063ffffffff16565b92505b5050919050565b60008060008414156111d65760009150611287565b82840290508284828115156111e757fe5b04141515611283576040517f08c379a00000000000000000000000000000000000000000000000000000000081526004018080602001828103825260218152602001807f536166654d6174683a206d756c7469706c69636174696f6e206f766572666c6f81526020017f770000000000000000000000000000000000000000000000000000000000000081525060400191505060405180910390fd5b8091505b5092915050565b600080600083111515611309576040517f08c379a000000000000000000000000000000000000000000000000000000000815260040180806020018281038252601a8152602001807f536166654d6174683a206469766973696f6e206279207a65726f00000000000081525060200191505060405180910390fd5b828481151561131457fe5b04905080915050929150505600a165627a7a7230582051c1d26ddff4119059aa0f1c706c42deadc9740398b521f81bb374f5d40b2e430029",
					"opcodes": "PUSH1 0x80 PUSH1 0x40 MSTORE CALLVALUE DUP1 ISZERO PUSH3 0x11 JUMPI PUSH1 0x0 DUP1 REVERT JUMPDEST POP PUSH1 0x40 MLOAD PUSH1 0xA0 DUP1 PUSH3 0x162C DUP4 CODECOPY DUP2 ADD DUP1 PUSH1 0x40 MSTORE DUP2 ADD SWAP1 DUP1 DUP1 MLOAD SWAP1 PUSH1 0x20 ADD SWAP1 SWAP3 SWAP2 SWAP1 DUP1 MLOAD SWAP1 PUSH1 0x20 ADD SWAP1 SWAP3 SWAP2 SWAP1 DUP1 MLOAD SWAP1 PUSH1 0x20 ADD SWAP1 SWAP3 SWAP2 SWAP1 DUP1 MLOAD SWAP1 PUSH1 0x20 ADD SWAP1 SWAP3 SWAP2 SWAP1 DUP1 MLOAD SWAP1 PUSH1 0x20 ADD SWAP1 SWAP3 SWAP2 SWAP1 POP POP POP CALLER PUSH1 0x0 DUP1 PUSH2 0x100 EXP DUP2 SLOAD DUP2 PUSH20 0xFFFFFFFFFFFFFFFFFFFFFFFFFFFFFFFFFFFFFFFF MUL NOT AND SWAP1 DUP4 PUSH20 0xFFFFFFFFFFFFFFFFFFFFFFFFFFFFFFFFFFFFFFFF AND MUL OR SWAP1 SSTORE POP PUSH1 0x0 DUP1 SWAP1 SLOAD SWAP1 PUSH2 0x100 EXP SWAP1 DIV PUSH20 0xFFFFFFFFFFFFFFFFFFFFFFFFFFFFFFFFFFFFFFFF AND PUSH20 0xFFFFFFFFFFFFFFFFFFFFFFFFFFFFFFFFFFFFFFFF AND PUSH1 0x0 PUSH20 0xFFFFFFFFFFFFFFFFFFFFFFFFFFFFFFFFFFFFFFFF AND PUSH32 0x8BE0079C531659141344CD1FD0A4F28419497F9722A3DAAFE3B4186F6B6457E0 PUSH1 0x40 MLOAD PUSH1 0x40 MLOAD DUP1 SWAP2 SUB SWAP1 LOG3 PUSH1 0x0 PUSH20 0xFFFFFFFFFFFFFFFFFFFFFFFFFFFFFFFFFFFFFFFF AND DUP6 PUSH20 0xFFFFFFFFFFFFFFFFFFFFFFFFFFFFFFFFFFFFFFFF AND EQ ISZERO ISZERO ISZERO PUSH3 0x156 JUMPI PUSH1 0x0 DUP1 REVERT JUMPDEST DUP2 DUP4 GT ISZERO ISZERO ISZERO PUSH3 0x166 JUMPI PUSH1 0x0 DUP1 REVERT JUMPDEST PUSH1 0x0 DUP3 GT ISZERO ISZERO PUSH3 0x176 JUMPI PUSH1 0x0 DUP1 REVERT JUMPDEST TIMESTAMP PUSH3 0x19A DUP4 DUP7 PUSH3 0x244 PUSH5 0x100000000 MUL PUSH3 0xD57 OR SWAP1 SWAP2 SWAP1 PUSH5 0x100000000 SWAP1 DIV JUMP JUMPDEST GT ISZERO ISZERO PUSH3 0x1A7 JUMPI PUSH1 0x0 DUP1 REVERT JUMPDEST DUP5 PUSH1 0x1 PUSH1 0x0 PUSH2 0x100 EXP DUP2 SLOAD DUP2 PUSH20 0xFFFFFFFFFFFFFFFFFFFFFFFFFFFFFFFFFFFFFFFF MUL NOT AND SWAP1 DUP4 PUSH20 0xFFFFFFFFFFFFFFFFFFFFFFFFFFFFFFFFFFFFFFFF AND MUL OR SWAP1 SSTORE POP DUP1 PUSH1 0x5 PUSH1 0x0 PUSH2 0x100 EXP DUP2 SLOAD DUP2 PUSH1 0xFF MUL NOT AND SWAP1 DUP4 ISZERO ISZERO MUL OR SWAP1 SSTORE POP DUP2 PUSH1 0x4 DUP2 SWAP1 SSTORE POP PUSH3 0x22C DUP4 DUP6 PUSH3 0x244 PUSH5 0x100000000 MUL PUSH3 0xD57 OR SWAP1 SWAP2 SWAP1 PUSH5 0x100000000 SWAP1 DIV JUMP JUMPDEST PUSH1 0x2 DUP2 SWAP1 SSTORE POP DUP4 PUSH1 0x3 DUP2 SWAP1 SSTORE POP POP POP POP POP POP PUSH3 0x2CF JUMP JUMPDEST PUSH1 0x0 DUP1 DUP3 DUP5 ADD SWAP1 POP DUP4 DUP2 LT ISZERO ISZERO ISZERO PUSH3 0x2C5 JUMPI PUSH1 0x40 MLOAD PUSH32 0x8C379A000000000000000000000000000000000000000000000000000000000 DUP2 MSTORE PUSH1 0x4 ADD DUP1 DUP1 PUSH1 0x20 ADD DUP3 DUP2 SUB DUP3 MSTORE PUSH1 0x1B DUP2 MSTORE PUSH1 0x20 ADD DUP1 PUSH32 0x536166654D6174683A206164646974696F6E206F766572666C6F770000000000 DUP2 MSTORE POP PUSH1 0x20 ADD SWAP2 POP POP PUSH1 0x40 MLOAD DUP1 SWAP2 SUB SWAP1 REVERT JUMPDEST DUP1 SWAP2 POP POP SWAP3 SWAP2 POP POP JUMP JUMPDEST PUSH2 0x134D DUP1 PUSH3 0x2DF PUSH1 0x0 CODECOPY PUSH1 0x0 RETURN STOP PUSH1 0x80 PUSH1 0x40 MSTORE PUSH1 0x4 CALLDATASIZE LT PUSH2 0xC5 JUMPI PUSH1 0x0 CALLDATALOAD PUSH29 0x100000000000000000000000000000000000000000000000000000000 SWAP1 DIV PUSH4 0xFFFFFFFF AND DUP1 PUSH4 0xFB5A6B4 EQ PUSH2 0xCA JUMPI DUP1 PUSH4 0x13D033C0 EQ PUSH2 0xF5 JUMPI DUP1 PUSH4 0x19165587 EQ PUSH2 0x120 JUMPI DUP1 PUSH4 0x38AF3EED EQ PUSH2 0x163 JUMPI DUP1 PUSH4 0x715018A6 EQ PUSH2 0x1BA JUMPI DUP1 PUSH4 0x74A8F103 EQ PUSH2 0x1D1 JUMPI DUP1 PUSH4 0x872A7810 EQ PUSH2 0x214 JUMPI DUP1 PUSH4 0x8DA5CB5B EQ PUSH2 0x243 JUMPI DUP1 PUSH4 0x8F32D59B EQ PUSH2 0x29A JUMPI DUP1 PUSH4 0x9852595C EQ PUSH2 0x2C9 JUMPI DUP1 PUSH4 0xBE9A6555 EQ PUSH2 0x320 JUMPI DUP1 PUSH4 0xF2FDE38B EQ PUSH2 0x34B JUMPI DUP1 PUSH4 0xFA01DC06 EQ PUSH2 0x38E JUMPI JUMPDEST PUSH1 0x0 DUP1 REVERT JUMPDEST CALLVALUE DUP1 ISZERO PUSH2 0xD6 JUMPI PUSH1 0x0 DUP1 REVERT JUMPDEST POP PUSH2 0xDF PUSH2 0x3E9 JUMP JUMPDEST PUSH1 0x40 MLOAD DUP1 DUP3 DUP2 MSTORE PUSH1 0x20 ADD SWAP2 POP POP PUSH1 0x40 MLOAD DUP1 SWAP2 SUB SWAP1 RETURN JUMPDEST CALLVALUE DUP1 ISZERO PUSH2 0x101 JUMPI PUSH1 0x0 DUP1 REVERT JUMPDEST POP PUSH2 0x10A PUSH2 0x3F3 JUMP JUMPDEST PUSH1 0x40 MLOAD DUP1 DUP3 DUP2 MSTORE PUSH1 0x20 ADD SWAP2 POP POP PUSH1 0x40 MLOAD DUP1 SWAP2 SUB SWAP1 RETURN JUMPDEST CALLVALUE DUP1 ISZERO PUSH2 0x12C JUMPI PUSH1 0x0 DUP1 REVERT JUMPDEST POP PUSH2 0x161 PUSH1 0x4 DUP1 CALLDATASIZE SUB DUP2 ADD SWAP1 DUP1 DUP1 CALLDATALOAD PUSH20 0xFFFFFFFFFFFFFFFFFFFFFFFFFFFFFFFFFFFFFFFF AND SWAP1 PUSH1 0x20 ADD SWAP1 SWAP3 SWAP2 SWAP1 POP POP POP PUSH2 0x3FD JUMP JUMPDEST STOP JUMPDEST CALLVALUE DUP1 ISZERO PUSH2 0x16F JUMPI PUSH1 0x0 DUP1 REVERT JUMPDEST POP PUSH2 0x178 PUSH2 0x56A JUMP JUMPDEST PUSH1 0x40 MLOAD DUP1 DUP3 PUSH20 0xFFFFFFFFFFFFFFFFFFFFFFFFFFFFFFFFFFFFFFFF AND PUSH20 0xFFFFFFFFFFFFFFFFFFFFFFFFFFFFFFFFFFFFFFFF AND DUP2 MSTORE PUSH1 0x20 ADD SWAP2 POP POP PUSH1 0x40 MLOAD DUP1 SWAP2 SUB SWAP1 RETURN JUMPDEST CALLVALUE DUP1 ISZERO PUSH2 0x1C6 JUMPI PUSH1 0x0 DUP1 REVERT JUMPDEST POP PUSH2 0x1CF PUSH2 0x594 JUMP JUMPDEST STOP JUMPDEST CALLVALUE DUP1 ISZERO PUSH2 0x1DD JUMPI PUSH1 0x0 DUP1 REVERT JUMPDEST POP PUSH2 0x212 PUSH1 0x4 DUP1 CALLDATASIZE SUB DUP2 ADD SWAP1 DUP1 DUP1 CALLDATALOAD PUSH20 0xFFFFFFFFFFFFFFFFFFFFFFFFFFFFFFFFFFFFFFFF AND SWAP1 PUSH1 0x20 ADD SWAP1 SWAP3 SWAP2 SWAP1 POP POP POP PUSH2 0x6CF JUMP JUMPDEST STOP JUMPDEST CALLVALUE DUP1 ISZERO PUSH2 0x220 JUMPI PUSH1 0x0 DUP1 REVERT JUMPDEST POP PUSH2 0x229 PUSH2 0x9AF JUMP JUMPDEST PUSH1 0x40 MLOAD DUP1 DUP3 ISZERO ISZERO ISZERO ISZERO DUP2 MSTORE PUSH1 0x20 ADD SWAP2 POP POP PUSH1 0x40 MLOAD DUP1 SWAP2 SUB SWAP1 RETURN JUMPDEST CALLVALUE DUP1 ISZERO PUSH2 0x24F JUMPI PUSH1 0x0 DUP1 REVERT JUMPDEST POP PUSH2 0x258 PUSH2 0x9C6 JUMP JUMPDEST PUSH1 0x40 MLOAD DUP1 DUP3 PUSH20 0xFFFFFFFFFFFFFFFFFFFFFFFFFFFFFFFFFFFFFFFF AND PUSH20 0xFFFFFFFFFFFFFFFFFFFFFFFFFFFFFFFFFFFFFFFF AND DUP2 MSTORE PUSH1 0x20 ADD SWAP2 POP POP PUSH1 0x40 MLOAD DUP1 SWAP2 SUB SWAP1 RETURN JUMPDEST CALLVALUE DUP1 ISZERO PUSH2 0x2A6 JUMPI PUSH1 0x0 DUP1 REVERT JUMPDEST POP PUSH2 0x2AF PUSH2 0x9EF JUMP JUMPDEST PUSH1 0x40 MLOAD DUP1 DUP3 ISZERO ISZERO ISZERO ISZERO DUP2 MSTORE PUSH1 0x20 ADD SWAP2 POP POP PUSH1 0x40 MLOAD DUP1 SWAP2 SUB SWAP1 RETURN JUMPDEST CALLVALUE DUP1 ISZERO PUSH2 0x2D5 JUMPI PUSH1 0x0 DUP1 REVERT JUMPDEST POP PUSH2 0x30A PUSH1 0x4 DUP1 CALLDATASIZE SUB DUP2 ADD SWAP1 DUP1 DUP1 CALLDATALOAD PUSH20 0xFFFFFFFFFFFFFFFFFFFFFFFFFFFFFFFFFFFFFFFF AND SWAP1 PUSH1 0x20 ADD SWAP1 SWAP3 SWAP2 SWAP1 POP POP POP PUSH2 0xA46 JUMP JUMPDEST PUSH1 0x40 MLOAD DUP1 DUP3 DUP2 MSTORE PUSH1 0x20 ADD SWAP2 POP POP PUSH1 0x40 MLOAD DUP1 SWAP2 SUB SWAP1 RETURN JUMPDEST CALLVALUE DUP1 ISZERO PUSH2 0x32C JUMPI PUSH1 0x0 DUP1 REVERT JUMPDEST POP PUSH2 0x335 PUSH2 0xA8F JUMP JUMPDEST PUSH1 0x40 MLOAD DUP1 DUP3 DUP2 MSTORE PUSH1 0x20 ADD SWAP2 POP POP PUSH1 0x40 MLOAD DUP1 SWAP2 SUB SWAP1 RETURN JUMPDEST CALLVALUE DUP1 ISZERO PUSH2 0x357 JUMPI PUSH1 0x0 DUP1 REVERT JUMPDEST POP PUSH2 0x38C PUSH1 0x4 DUP1 CALLDATASIZE SUB DUP2 ADD SWAP1 DUP1 DUP1 CALLDATALOAD PUSH20 0xFFFFFFFFFFFFFFFFFFFFFFFFFFFFFFFFFFFFFFFF AND SWAP1 PUSH1 0x20 ADD SWAP1 SWAP3 SWAP2 SWAP1 POP POP POP PUSH2 0xA99 JUMP JUMPDEST STOP JUMPDEST CALLVALUE DUP1 ISZERO PUSH2 0x39A JUMPI PUSH1 0x0 DUP1 REVERT JUMPDEST POP PUSH2 0x3CF PUSH1 0x4 DUP1 CALLDATASIZE SUB DUP2 ADD SWAP1 DUP1 DUP1 CALLDATALOAD PUSH20 0xFFFFFFFFFFFFFFFFFFFFFFFFFFFFFFFFFFFFFFFF AND SWAP1 PUSH1 0x20 ADD SWAP1 SWAP3 SWAP2 SWAP1 POP POP POP PUSH2 0xC9E JUMP JUMPDEST PUSH1 0x40 MLOAD DUP1 DUP3 ISZERO ISZERO ISZERO ISZERO DUP2 MSTORE PUSH1 0x20 ADD SWAP2 POP POP PUSH1 0x40 MLOAD DUP1 SWAP2 SUB SWAP1 RETURN JUMPDEST PUSH1 0x0 PUSH1 0x4 SLOAD SWAP1 POP SWAP1 JUMP JUMPDEST PUSH1 0x0 PUSH1 0x2 SLOAD SWAP1 POP SWAP1 JUMP JUMPDEST PUSH1 0x0 PUSH2 0x408 DUP3 PUSH2 0xCF4 JUMP JUMPDEST SWAP1 POP PUSH1 0x0 DUP2 GT ISZERO ISZERO PUSH2 0x419 JUMPI PUSH1 0x0 DUP1 REVERT JUMPDEST PUSH2 0x46B DUP2 PUSH1 0x6 PUSH1 0x0 DUP6 PUSH20 0xFFFFFFFFFFFFFFFFFFFFFFFFFFFFFFFFFFFFFFFF AND PUSH20 0xFFFFFFFFFFFFFFFFFFFFFFFFFFFFFFFFFFFFFFFF AND DUP2 MSTORE PUSH1 0x20 ADD SWAP1 DUP2 MSTORE PUSH1 0x20 ADD PUSH1 0x0 KECCAK256 SLOAD PUSH2 0xD57 SWAP1 SWAP2 SWAP1 PUSH4 0xFFFFFFFF AND JUMP JUMPDEST PUSH1 0x6 PUSH1 0x0 DUP5 PUSH20 0xFFFFFFFFFFFFFFFFFFFFFFFFFFFFFFFFFFFFFFFF AND PUSH20 0xFFFFFFFFFFFFFFFFFFFFFFFFFFFFFFFFFFFFFFFF AND DUP2 MSTORE PUSH1 0x20 ADD SWAP1 DUP2 MSTORE PUSH1 0x20 ADD PUSH1 0x0 KECCAK256 DUP2 SWAP1 SSTORE POP PUSH2 0x4FB PUSH1 0x1 PUSH1 0x0 SWAP1 SLOAD SWAP1 PUSH2 0x100 EXP SWAP1 DIV PUSH20 0xFFFFFFFFFFFFFFFFFFFFFFFFFFFFFFFFFFFFFFFF AND DUP3 DUP5 PUSH20 0xFFFFFFFFFFFFFFFFFFFFFFFFFFFFFFFFFFFFFFFF AND PUSH2 0xDE1 SWAP1 SWAP3 SWAP2 SWAP1 PUSH4 0xFFFFFFFF AND JUMP JUMPDEST PUSH32 0xC7798891864187665AC6DD119286E44EC13F014527AEEB2B8EB3FD413DF93179 DUP3 DUP3 PUSH1 0x40 MLOAD DUP1 DUP4 PUSH20 0xFFFFFFFFFFFFFFFFFFFFFFFFFFFFFFFFFFFFFFFF AND PUSH20 0xFFFFFFFFFFFFFFFFFFFFFFFFFFFFFFFFFFFFFFFF AND DUP2 MSTORE PUSH1 0x20 ADD DUP3 DUP2 MSTORE PUSH1 0x20 ADD SWAP3 POP POP POP PUSH1 0x40 MLOAD DUP1 SWAP2 SUB SWAP1 LOG1 POP POP JUMP JUMPDEST PUSH1 0x0 PUSH1 0x1 PUSH1 0x0 SWAP1 SLOAD SWAP1 PUSH2 0x100 EXP SWAP1 DIV PUSH20 0xFFFFFFFFFFFFFFFFFFFFFFFFFFFFFFFFFFFFFFFF AND SWAP1 POP SWAP1 JUMP JUMPDEST PUSH2 0x59C PUSH2 0x9EF JUMP JUMPDEST ISZERO ISZERO PUSH2 0x610 JUMPI PUSH1 0x40 MLOAD PUSH32 0x8C379A000000000000000000000000000000000000000000000000000000000 DUP2 MSTORE PUSH1 0x4 ADD DUP1 DUP1 PUSH1 0x20 ADD DUP3 DUP2 SUB DUP3 MSTORE PUSH1 0x20 DUP2 MSTORE PUSH1 0x20 ADD DUP1 PUSH32 0x4F776E61626C653A2063616C6C6572206973206E6F7420746865206F776E6572 DUP2 MSTORE POP PUSH1 0x20 ADD SWAP2 POP POP PUSH1 0x40 MLOAD DUP1 SWAP2 SUB SWAP1 REVERT JUMPDEST PUSH1 0x0 PUSH20 0xFFFFFFFFFFFFFFFFFFFFFFFFFFFFFFFFFFFFFFFF AND PUSH1 0x0 DUP1 SWAP1 SLOAD SWAP1 PUSH2 0x100 EXP SWAP1 DIV PUSH20 0xFFFFFFFFFFFFFFFFFFFFFFFFFFFFFFFFFFFFFFFF AND PUSH20 0xFFFFFFFFFFFFFFFFFFFFFFFFFFFFFFFFFFFFFFFF AND PUSH32 0x8BE0079C531659141344CD1FD0A4F28419497F9722A3DAAFE3B4186F6B6457E0 PUSH1 0x40 MLOAD PUSH1 0x40 MLOAD DUP1 SWAP2 SUB SWAP1 LOG3 PUSH1 0x0 DUP1 PUSH1 0x0 PUSH2 0x100 EXP DUP2 SLOAD DUP2 PUSH20 0xFFFFFFFFFFFFFFFFFFFFFFFFFFFFFFFFFFFFFFFF MUL NOT AND SWAP1 DUP4 PUSH20 0xFFFFFFFFFFFFFFFFFFFFFFFFFFFFFFFFFFFFFFFF AND MUL OR SWAP1 SSTORE POP JUMP JUMPDEST PUSH1 0x0 DUP1 PUSH1 0x0 PUSH2 0x6DC PUSH2 0x9EF JUMP JUMPDEST ISZERO ISZERO PUSH2 0x750 JUMPI PUSH1 0x40 MLOAD PUSH32 0x8C379A000000000000000000000000000000000000000000000000000000000 DUP2 MSTORE PUSH1 0x4 ADD DUP1 DUP1 PUSH1 0x20 ADD DUP3 DUP2 SUB DUP3 MSTORE PUSH1 0x20 DUP2 MSTORE PUSH1 0x20 ADD DUP1 PUSH32 0x4F776E61626C653A2063616C6C6572206973206E6F7420746865206F776E6572 DUP2 MSTORE POP PUSH1 0x20 ADD SWAP2 POP POP PUSH1 0x40 MLOAD DUP1 SWAP2 SUB SWAP1 REVERT JUMPDEST PUSH1 0x5 PUSH1 0x0 SWAP1 SLOAD SWAP1 PUSH2 0x100 EXP SWAP1 DIV PUSH1 0xFF AND ISZERO ISZERO PUSH2 0x76B JUMPI PUSH1 0x0 DUP1 REVERT JUMPDEST PUSH1 0x7 PUSH1 0x0 DUP6 PUSH20 0xFFFFFFFFFFFFFFFFFFFFFFFFFFFFFFFFFFFFFFFF AND PUSH20 0xFFFFFFFFFFFFFFFFFFFFFFFFFFFFFFFFFFFFFFFF AND DUP2 MSTORE PUSH1 0x20 ADD SWAP1 DUP2 MSTORE PUSH1 0x20 ADD PUSH1 0x0 KECCAK256 PUSH1 0x0 SWAP1 SLOAD SWAP1 PUSH2 0x100 EXP SWAP1 DIV PUSH1 0xFF AND ISZERO ISZERO ISZERO PUSH2 0x7C4 JUMPI PUSH1 0x0 DUP1 REVERT JUMPDEST DUP4 PUSH20 0xFFFFFFFFFFFFFFFFFFFFFFFFFFFFFFFFFFFFFFFF AND PUSH4 0x70A08231 ADDRESS PUSH1 0x40 MLOAD DUP3 PUSH4 0xFFFFFFFF AND PUSH29 0x100000000000000000000000000000000000000000000000000000000 MUL DUP2 MSTORE PUSH1 0x4 ADD DUP1 DUP3 PUSH20 0xFFFFFFFFFFFFFFFFFFFFFFFFFFFFFFFFFFFFFFFF AND PUSH20 0xFFFFFFFFFFFFFFFFFFFFFFFFFFFFFFFFFFFFFFFF AND DUP2 MSTORE PUSH1 0x20 ADD SWAP2 POP POP PUSH1 0x20 PUSH1 0x40 MLOAD DUP1 DUP4 SUB DUP2 PUSH1 0x0 DUP8 DUP1 EXTCODESIZE ISZERO DUP1 ISZERO PUSH2 0x85F JUMPI PUSH1 0x0 DUP1 REVERT JUMPDEST POP GAS CALL ISZERO DUP1 ISZERO PUSH2 0x873 JUMPI RETURNDATASIZE PUSH1 0x0 DUP1 RETURNDATACOPY RETURNDATASIZE PUSH1 0x0 REVERT JUMPDEST POP POP POP POP PUSH1 0x40 MLOAD RETURNDATASIZE PUSH1 0x20 DUP2 LT ISZERO PUSH2 0x889 JUMPI PUSH1 0x0 DUP1 REVERT JUMPDEST DUP2 ADD SWAP1 DUP1 DUP1 MLOAD SWAP1 PUSH1 0x20 ADD SWAP1 SWAP3 SWAP2 SWAP1 POP POP POP SWAP3 POP PUSH2 0x8A5 DUP5 PUSH2 0xCF4 JUMP JUMPDEST SWAP2 POP PUSH2 0x8BA DUP3 DUP5 PUSH2 0xF38 SWAP1 SWAP2 SWAP1 PUSH4 0xFFFFFFFF AND JUMP JUMPDEST SWAP1 POP PUSH1 0x1 PUSH1 0x7 PUSH1 0x0 DUP7 PUSH20 0xFFFFFFFFFFFFFFFFFFFFFFFFFFFFFFFFFFFFFFFF AND PUSH20 0xFFFFFFFFFFFFFFFFFFFFFFFFFFFFFFFFFFFFFFFF AND DUP2 MSTORE PUSH1 0x20 ADD SWAP1 DUP2 MSTORE PUSH1 0x20 ADD PUSH1 0x0 KECCAK256 PUSH1 0x0 PUSH2 0x100 EXP DUP2 SLOAD DUP2 PUSH1 0xFF MUL NOT AND SWAP1 DUP4 ISZERO ISZERO MUL OR SWAP1 SSTORE POP PUSH2 0x946 PUSH2 0x91F PUSH2 0x9C6 JUMP JUMPDEST DUP3 DUP7 PUSH20 0xFFFFFFFFFFFFFFFFFFFFFFFFFFFFFFFFFFFFFFFF AND PUSH2 0xDE1 SWAP1 SWAP3 SWAP2 SWAP1 PUSH4 0xFFFFFFFF AND JUMP JUMPDEST PUSH32 0x39983C6D4D174A7AEE564F449D4A5C3C7AC9649D72B7793C56901183996F8AF6 DUP5 PUSH1 0x40 MLOAD DUP1 DUP3 PUSH20 0xFFFFFFFFFFFFFFFFFFFFFFFFFFFFFFFFFFFFFFFF AND PUSH20 0xFFFFFFFFFFFFFFFFFFFFFFFFFFFFFFFFFFFFFFFF AND DUP2 MSTORE PUSH1 0x20 ADD SWAP2 POP POP PUSH1 0x40 MLOAD DUP1 SWAP2 SUB SWAP1 LOG1 POP POP POP POP JUMP JUMPDEST PUSH1 0x0 PUSH1 0x5 PUSH1 0x0 SWAP1 SLOAD SWAP1 PUSH2 0x100 EXP SWAP1 DIV PUSH1 0xFF AND SWAP1 POP SWAP1 JUMP JUMPDEST PUSH1 0x0 DUP1 PUSH1 0x0 SWAP1 SLOAD SWAP1 PUSH2 0x100 EXP SWAP1 DIV PUSH20 0xFFFFFFFFFFFFFFFFFFFFFFFFFFFFFFFFFFFFFFFF AND SWAP1 POP SWAP1 JUMP JUMPDEST PUSH1 0x0 DUP1 PUSH1 0x0 SWAP1 SLOAD SWAP1 PUSH2 0x100 EXP SWAP1 DIV PUSH20 0xFFFFFFFFFFFFFFFFFFFFFFFFFFFFFFFFFFFFFFFF AND PUSH20 0xFFFFFFFFFFFFFFFFFFFFFFFFFFFFFFFFFFFFFFFF AND CALLER PUSH20 0xFFFFFFFFFFFFFFFFFFFFFFFFFFFFFFFFFFFFFFFF AND EQ SWAP1 POP SWAP1 JUMP JUMPDEST PUSH1 0x0 PUSH1 0x6 PUSH1 0x0 DUP4 PUSH20 0xFFFFFFFFFFFFFFFFFFFFFFFFFFFFFFFFFFFFFFFF AND PUSH20 0xFFFFFFFFFFFFFFFFFFFFFFFFFFFFFFFFFFFFFFFF AND DUP2 MSTORE PUSH1 0x20 ADD SWAP1 DUP2 MSTORE PUSH1 0x20 ADD PUSH1 0x0 KECCAK256 SLOAD SWAP1 POP SWAP2 SWAP1 POP JUMP JUMPDEST PUSH1 0x0 PUSH1 0x3 SLOAD SWAP1 POP SWAP1 JUMP JUMPDEST PUSH2 0xAA1 PUSH2 0x9EF JUMP JUMPDEST ISZERO ISZERO PUSH2 0xB15 JUMPI PUSH1 0x40 MLOAD PUSH32 0x8C379A000000000000000000000000000000000000000000000000000000000 DUP2 MSTORE PUSH1 0x4 ADD DUP1 DUP1 PUSH1 0x20 ADD DUP3 DUP2 SUB DUP3 MSTORE PUSH1 0x20 DUP2 MSTORE PUSH1 0x20 ADD DUP1 PUSH32 0x4F776E61626C653A2063616C6C6572206973206E6F7420746865206F776E6572 DUP2 MSTORE POP PUSH1 0x20 ADD SWAP2 POP POP PUSH1 0x40 MLOAD DUP1 SWAP2 SUB SWAP1 REVERT JUMPDEST PUSH1 0x0 PUSH20 0xFFFFFFFFFFFFFFFFFFFFFFFFFFFFFFFFFFFFFFFF AND DUP2 PUSH20 0xFFFFFFFFFFFFFFFFFFFFFFFFFFFFFFFFFFFFFFFF AND EQ ISZERO ISZERO ISZERO PUSH2 0xBE0 JUMPI PUSH1 0x40 MLOAD PUSH32 0x8C379A000000000000000000000000000000000000000000000000000000000 DUP2 MSTORE PUSH1 0x4 ADD DUP1 DUP1 PUSH1 0x20 ADD DUP3 DUP2 SUB DUP3 MSTORE PUSH1 0x26 DUP2 MSTORE PUSH1 0x20 ADD DUP1 PUSH32 0x4F776E61626C653A206E6577206F776E657220697320746865207A65726F2061 DUP2 MSTORE PUSH1 0x20 ADD PUSH32 0x6464726573730000000000000000000000000000000000000000000000000000 DUP2 MSTORE POP PUSH1 0x40 ADD SWAP2 POP POP PUSH1 0x40 MLOAD DUP1 SWAP2 SUB SWAP1 REVERT JUMPDEST DUP1 PUSH20 0xFFFFFFFFFFFFFFFFFFFFFFFFFFFFFFFFFFFFFFFF AND PUSH1 0x0 DUP1 SWAP1 SLOAD SWAP1 PUSH2 0x100 EXP SWAP1 DIV PUSH20 0xFFFFFFFFFFFFFFFFFFFFFFFFFFFFFFFFFFFFFFFF AND PUSH20 0xFFFFFFFFFFFFFFFFFFFFFFFFFFFFFFFFFFFFFFFF AND PUSH32 0x8BE0079C531659141344CD1FD0A4F28419497F9722A3DAAFE3B4186F6B6457E0 PUSH1 0x40 MLOAD PUSH1 0x40 MLOAD DUP1 SWAP2 SUB SWAP1 LOG3 DUP1 PUSH1 0x0 DUP1 PUSH2 0x100 EXP DUP2 SLOAD DUP2 PUSH20 0xFFFFFFFFFFFFFFFFFFFFFFFFFFFFFFFFFFFFFFFF MUL NOT AND SWAP1 DUP4 PUSH20 0xFFFFFFFFFFFFFFFFFFFFFFFFFFFFFFFFFFFFFFFF AND MUL OR SWAP1 SSTORE POP POP JUMP JUMPDEST PUSH1 0x0 PUSH1 0x7 PUSH1 0x0 DUP4 PUSH20 0xFFFFFFFFFFFFFFFFFFFFFFFFFFFFFFFFFFFFFFFF AND PUSH20 0xFFFFFFFFFFFFFFFFFFFFFFFFFFFFFFFFFFFFFFFF AND DUP2 MSTORE PUSH1 0x20 ADD SWAP1 DUP2 MSTORE PUSH1 0x20 ADD PUSH1 0x0 KECCAK256 PUSH1 0x0 SWAP1 SLOAD SWAP1 PUSH2 0x100 EXP SWAP1 DIV PUSH1 0xFF AND SWAP1 POP SWAP2 SWAP1 POP JUMP JUMPDEST PUSH1 0x0 PUSH2 0xD50 PUSH1 0x6 PUSH1 0x0 DUP5 PUSH20 0xFFFFFFFFFFFFFFFFFFFFFFFFFFFFFFFFFFFFFFFF AND PUSH20 0xFFFFFFFFFFFFFFFFFFFFFFFFFFFFFFFFFFFFFFFF AND DUP2 MSTORE PUSH1 0x20 ADD SWAP1 DUP2 MSTORE PUSH1 0x20 ADD PUSH1 0x0 KECCAK256 SLOAD PUSH2 0xD42 DUP5 PUSH2 0xFBD JUMP JUMPDEST PUSH2 0xF38 SWAP1 SWAP2 SWAP1 PUSH4 0xFFFFFFFF AND JUMP JUMPDEST SWAP1 POP SWAP2 SWAP1 POP JUMP JUMPDEST PUSH1 0x0 DUP1 DUP3 DUP5 ADD SWAP1 POP DUP4 DUP2 LT ISZERO ISZERO ISZERO PUSH2 0xDD7 JUMPI PUSH1 0x40 MLOAD PUSH32 0x8C379A000000000000000000000000000000000000000000000000000000000 DUP2 MSTORE PUSH1 0x4 ADD DUP1 DUP1 PUSH1 0x20 ADD DUP3 DUP2 SUB DUP3 MSTORE PUSH1 0x1B DUP2 MSTORE PUSH1 0x20 ADD DUP1 PUSH32 0x536166654D6174683A206164646974696F6E206F766572666C6F770000000000 DUP2 MSTORE POP PUSH1 0x20 ADD SWAP2 POP POP PUSH1 0x40 MLOAD DUP1 SWAP2 SUB SWAP1 REVERT JUMPDEST DUP1 SWAP2 POP POP SWAP3 SWAP2 POP POP JUMP JUMPDEST DUP3 PUSH20 0xFFFFFFFFFFFFFFFFFFFFFFFFFFFFFFFFFFFFFFFF AND PUSH4 0xA9059CBB DUP4 DUP4 PUSH1 0x40 MLOAD DUP4 PUSH4 0xFFFFFFFF AND PUSH29 0x100000000000000000000000000000000000000000000000000000000 MUL DUP2 MSTORE PUSH1 0x4 ADD DUP1 DUP4 PUSH20 0xFFFFFFFFFFFFFFFFFFFFFFFFFFFFFFFFFFFFFFFF AND PUSH20 0xFFFFFFFFFFFFFFFFFFFFFFFFFFFFFFFFFFFFFFFF AND DUP2 MSTORE PUSH1 0x20 ADD DUP3 DUP2 MSTORE PUSH1 0x20 ADD SWAP3 POP POP POP PUSH1 0x20 PUSH1 0x40 MLOAD DUP1 DUP4 SUB DUP2 PUSH1 0x0 DUP8 DUP1 EXTCODESIZE ISZERO DUP1 ISZERO PUSH2 0xE84 JUMPI PUSH1 0x0 DUP1 REVERT JUMPDEST POP GAS CALL ISZERO DUP1 ISZERO PUSH2 0xE98 JUMPI RETURNDATASIZE PUSH1 0x0 DUP1 RETURNDATACOPY RETURNDATASIZE PUSH1 0x0 REVERT JUMPDEST POP POP POP POP PUSH1 0x40 MLOAD RETURNDATASIZE PUSH1 0x20 DUP2 LT ISZERO PUSH2 0xEAE JUMPI PUSH1 0x0 DUP1 REVERT JUMPDEST DUP2 ADD SWAP1 DUP1 DUP1 MLOAD SWAP1 PUSH1 0x20 ADD SWAP1 SWAP3 SWAP2 SWAP1 POP POP POP ISZERO ISZERO PUSH2 0xF33 JUMPI PUSH1 0x40 MLOAD PUSH32 0x8C379A000000000000000000000000000000000000000000000000000000000 DUP2 MSTORE PUSH1 0x4 ADD DUP1 DUP1 PUSH1 0x20 ADD DUP3 DUP2 SUB DUP3 MSTORE PUSH1 0x1A DUP2 MSTORE PUSH1 0x20 ADD DUP1 PUSH32 0x5361666545524332303A207472616E73666572206661696C6564000000000000 DUP2 MSTORE POP PUSH1 0x20 ADD SWAP2 POP POP PUSH1 0x40 MLOAD DUP1 SWAP2 SUB SWAP1 REVERT JUMPDEST POP POP POP JUMP JUMPDEST PUSH1 0x0 DUP3 DUP3 GT ISZERO ISZERO ISZERO PUSH2 0xFB2 JUMPI PUSH1 0x40 MLOAD PUSH32 0x8C379A000000000000000000000000000000000000000000000000000000000 DUP2 MSTORE PUSH1 0x4 ADD DUP1 DUP1 PUSH1 0x20 ADD DUP3 DUP2 SUB DUP3 MSTORE PUSH1 0x1E DUP2 MSTORE PUSH1 0x20 ADD DUP1 PUSH32 0x536166654D6174683A207375627472616374696F6E206F766572666C6F770000 DUP2 MSTORE POP PUSH1 0x20 ADD SWAP2 POP POP PUSH1 0x40 MLOAD DUP1 SWAP2 SUB SWAP1 REVERT JUMPDEST DUP2 DUP4 SUB SWAP1 POP SWAP3 SWAP2 POP POP JUMP JUMPDEST PUSH1 0x0 DUP1 PUSH1 0x0 DUP4 PUSH20 0xFFFFFFFFFFFFFFFFFFFFFFFFFFFFFFFFFFFFFFFF AND PUSH4 0x70A08231 ADDRESS PUSH1 0x40 MLOAD DUP3 PUSH4 0xFFFFFFFF AND PUSH29 0x100000000000000000000000000000000000000000000000000000000 MUL DUP2 MSTORE PUSH1 0x4 ADD DUP1 DUP3 PUSH20 0xFFFFFFFFFFFFFFFFFFFFFFFFFFFFFFFFFFFFFFFF AND PUSH20 0xFFFFFFFFFFFFFFFFFFFFFFFFFFFFFFFFFFFFFFFF AND DUP2 MSTORE PUSH1 0x20 ADD SWAP2 POP POP PUSH1 0x20 PUSH1 0x40 MLOAD DUP1 DUP4 SUB DUP2 PUSH1 0x0 DUP8 DUP1 EXTCODESIZE ISZERO DUP1 ISZERO PUSH2 0x105D JUMPI PUSH1 0x0 DUP1 REVERT JUMPDEST POP GAS CALL ISZERO DUP1 ISZERO PUSH2 0x1071 JUMPI RETURNDATASIZE PUSH1 0x0 DUP1 RETURNDATACOPY RETURNDATASIZE PUSH1 0x0 REVERT JUMPDEST POP POP POP POP PUSH1 0x40 MLOAD RETURNDATASIZE PUSH1 0x20 DUP2 LT ISZERO PUSH2 0x1087 JUMPI PUSH1 0x0 DUP1 REVERT JUMPDEST DUP2 ADD SWAP1 DUP1 DUP1 MLOAD SWAP1 PUSH1 0x20 ADD SWAP1 SWAP3 SWAP2 SWAP1 POP POP POP SWAP2 POP PUSH2 0x10EC PUSH1 0x6 PUSH1 0x0 DUP7 PUSH20 0xFFFFFFFFFFFFFFFFFFFFFFFFFFFFFFFFFFFFFFFF AND PUSH20 0xFFFFFFFFFFFFFFFFFFFFFFFFFFFFFFFFFFFFFFFF AND DUP2 MSTORE PUSH1 0x20 ADD SWAP1 DUP2 MSTORE PUSH1 0x20 ADD PUSH1 0x0 KECCAK256 SLOAD DUP4 PUSH2 0xD57 SWAP1 SWAP2 SWAP1 PUSH4 0xFFFFFFFF AND JUMP JUMPDEST SWAP1 POP PUSH1 0x2 SLOAD TIMESTAMP LT ISZERO PUSH2 0x1101 JUMPI PUSH1 0x0 SWAP3 POP PUSH2 0x11BA JUMP JUMPDEST PUSH2 0x1118 PUSH1 0x4 SLOAD PUSH1 0x3 SLOAD PUSH2 0xD57 SWAP1 SWAP2 SWAP1 PUSH4 0xFFFFFFFF AND JUMP JUMPDEST TIMESTAMP LT ISZERO DUP1 PUSH2 0x116F JUMPI POP PUSH1 0x7 PUSH1 0x0 DUP6 PUSH20 0xFFFFFFFFFFFFFFFFFFFFFFFFFFFFFFFFFFFFFFFF AND PUSH20 0xFFFFFFFFFFFFFFFFFFFFFFFFFFFFFFFFFFFFFFFF AND DUP2 MSTORE PUSH1 0x20 ADD SWAP1 DUP2 MSTORE PUSH1 0x20 ADD PUSH1 0x0 KECCAK256 PUSH1 0x0 SWAP1 SLOAD SWAP1 PUSH2 0x100 EXP SWAP1 DIV PUSH1 0xFF AND JUMPDEST ISZERO PUSH2 0x117C JUMPI DUP1 SWAP3 POP PUSH2 0x11BA JUMP JUMPDEST PUSH2 0x11B7 PUSH1 0x4 SLOAD PUSH2 0x11A9 PUSH2 0x119A PUSH1 0x3 SLOAD TIMESTAMP PUSH2 0xF38 SWAP1 SWAP2 SWAP1 PUSH4 0xFFFFFFFF AND JUMP JUMPDEST DUP5 PUSH2 0x11C1 SWAP1 SWAP2 SWAP1 PUSH4 0xFFFFFFFF AND JUMP JUMPDEST PUSH2 0x128E SWAP1 SWAP2 SWAP1 PUSH4 0xFFFFFFFF AND JUMP JUMPDEST SWAP3 POP JUMPDEST POP POP SWAP2 SWAP1 POP JUMP JUMPDEST PUSH1 0x0 DUP1 PUSH1 0x0 DUP5 EQ ISZERO PUSH2 0x11D6 JUMPI PUSH1 0x0 SWAP2 POP PUSH2 0x1287 JUMP JUMPDEST DUP3 DUP5 MUL SWAP1 POP DUP3 DUP5 DUP3 DUP2 ISZERO ISZERO PUSH2 0x11E7 JUMPI INVALID JUMPDEST DIV EQ ISZERO ISZERO PUSH2 0x1283 JUMPI PUSH1 0x40 MLOAD PUSH32 0x8C379A000000000000000000000000000000000000000000000000000000000 DUP2 MSTORE PUSH1 0x4 ADD DUP1 DUP1 PUSH1 0x20 ADD DUP3 DUP2 SUB DUP3 MSTORE PUSH1 0x21 DUP2 MSTORE PUSH1 0x20 ADD DUP1 PUSH32 0x536166654D6174683A206D756C7469706C69636174696F6E206F766572666C6F DUP2 MSTORE PUSH1 0x20 ADD PUSH32 0x7700000000000000000000000000000000000000000000000000000000000000 DUP2 MSTORE POP PUSH1 0x40 ADD SWAP2 POP POP PUSH1 0x40 MLOAD DUP1 SWAP2 SUB SWAP1 REVERT JUMPDEST DUP1 SWAP2 POP JUMPDEST POP SWAP3 SWAP2 POP POP JUMP JUMPDEST PUSH1 0x0 DUP1 PUSH1 0x0 DUP4 GT ISZERO ISZERO PUSH2 0x1309 JUMPI PUSH1 0x40 MLOAD PUSH32 0x8C379A000000000000000000000000000000000000000000000000000000000 DUP2 MSTORE PUSH1 0x4 ADD DUP1 DUP1 PUSH1 0x20 ADD DUP3 DUP2 SUB DUP3 MSTORE PUSH1 0x1A DUP2 MSTORE PUSH1 0x20 ADD DUP1 PUSH32 0x536166654D6174683A206469766973696F6E206279207A65726F000000000000 DUP2 MSTORE POP PUSH1 0x20 ADD SWAP2 POP POP PUSH1 0x40 MLOAD DUP1 SWAP2 SUB SWAP1 REVERT JUMPDEST DUP3 DUP5 DUP2 ISZERO ISZERO PUSH2 0x1314 JUMPI INVALID JUMPDEST DIV SWAP1 POP DUP1 SWAP2 POP POP SWAP3 SWAP2 POP POP JUMP STOP LOG1 PUSH6 0x627A7A723058 KECCAK256 MLOAD 0xc1 0xd2 PUSH14 0xDFF4119059AA0F1C706C42DEADC9 PUSH21 0x398B521F81BB374F5D40B2E430029000000000000 "
				},
				"gasEstimates": {
					"creation": {
						"codeDepositCost": "988200",
						"executionCost": "infinite",
						"totalCost": "infinite"
					},
					"external": {
						"beneficiary()": "516",
						"cliff()": "424",
						"duration()": "402",
						"isOwner()": "643",
						"owner()": "604",
						"release(address)": "infinite",
						"released(address)": "757",
						"renounceOwnership()": "22580",
						"revocable()": "582",
						"revoke(address)": "infinite",
						"revoked(address)": "871",
						"start()": "622",
						"transferOwnership(address)": "22842"
					},
					"internal": {
						"_releasableAmount(contract IERC20)": "infinite",
						"_vestedAmount(contract IERC20)": "infinite"
					}
				},
				"methodIdentifiers": {
					"beneficiary()": "38af3eed",
					"cliff()": "13d033c0",
					"duration()": "0fb5a6b4",
					"isOwner()": "8f32d59b",
					"owner()": "8da5cb5b",
					"release(address)": "19165587",
					"released(address)": "9852595c",
					"renounceOwnership()": "715018a6",
					"revocable()": "872a7810",
					"revoke(address)": "74a8f103",
					"revoked(address)": "fa01dc06",
					"start()": "be9a6555",
					"transferOwnership(address)": "f2fde38b"
				}
			},
			"userdoc": {
				"methods": {
					"release(address)": {
						"notice": "Transfers vested tokens to beneficiary."
					},
					"revoke(address)": {
						"notice": "Allows the owner to revoke the vesting. Tokens already vested remain in the contract, the rest are returned to the owner."
					}
				}
			}
		}
	}
}